{
  "contractName": "AmtCollector",
  "abi": [
    {
      "inputs": [],
      "stateMutability": "nonpayable",
      "type": "constructor"
    },
    {
      "inputs": [],
      "name": "balance",
      "outputs": [
        {
          "internalType": "uint256",
          "name": "",
          "type": "uint256"
        }
      ],
      "stateMutability": "view",
      "type": "function",
      "constant": true
    },
    {
      "inputs": [],
      "name": "owner",
      "outputs": [
        {
          "internalType": "address",
          "name": "",
          "type": "address"
        }
      ],
      "stateMutability": "view",
      "type": "function",
      "constant": true
    },
    {
      "inputs": [],
      "name": "getOwner",
      "outputs": [
        {
          "internalType": "address",
          "name": "",
          "type": "address"
        }
      ],
      "stateMutability": "view",
      "type": "function",
      "constant": true
    },
    {
      "inputs": [],
      "name": "addAmt",
      "outputs": [],
      "stateMutability": "payable",
      "type": "function",
      "payable": true
    },
    {
      "inputs": [],
      "name": "getAmt",
      "outputs": [
        {
          "internalType": "uint256",
          "name": "",
          "type": "uint256"
        }
      ],
      "stateMutability": "view",
      "type": "function",
      "constant": true
    },
    {
      "inputs": [
        {
          "internalType": "address",
          "name": "_addr",
          "type": "address"
        }
      ],
      "name": "balanceOf",
      "outputs": [
        {
          "internalType": "uint256",
          "name": "",
          "type": "uint256"
        }
      ],
      "stateMutability": "view",
      "type": "function",
      "constant": true
    },
    {
      "inputs": [
        {
          "internalType": "address payable",
          "name": "_dst",
          "type": "address"
        },
        {
          "internalType": "uint256",
          "name": "_amt",
          "type": "uint256"
        }
      ],
      "name": "transferAmt",
      "outputs": [],
      "stateMutability": "nonpayable",
      "type": "function"
    }
  ],
  "bytecode": "0x608060405234801561001057600080fd5b50336000806101000a81548173ffffffffffffffffffffffffffffffffffffffff021916908373ffffffffffffffffffffffffffffffffffffffff16021790555061049f806100606000396000f3fe6080604052600436106100705760003560e01c8063893d20e81161004e578063893d20e8146101605780638da5cb5b146101b7578063b69ef8a81461020e578063c65a18d51461023957610070565b806315c191a9146100755780633a3547f5146100a057806370a08231146100fb575b600080fd5b34801561008157600080fd5b5061008a610243565b6040518082815260200191505060405180910390f35b3480156100ac57600080fd5b506100f9600480360360408110156100c357600080fd5b81019080803573ffffffffffffffffffffffffffffffffffffffff1690602001909291908035906020019092919050505061024d565b005b34801561010757600080fd5b5061014a6004803603602081101561011e57600080fd5b81019080803573ffffffffffffffffffffffffffffffffffffffff1690602001909291905050506103e2565b6040518082815260200191505060405180910390f35b34801561016c57600080fd5b50610175610403565b604051808273ffffffffffffffffffffffffffffffffffffffff1673ffffffffffffffffffffffffffffffffffffffff16815260200191505060405180910390f35b3480156101c357600080fd5b506101cc61042c565b604051808273ffffffffffffffffffffffffffffffffffffffff1673ffffffffffffffffffffffffffffffffffffffff16815260200191505060405180910390f35b34801561021a57600080fd5b50610223610451565b6040518082815260200191505060405180910390f35b610241610457565b005b6000600154905090565b6000809054906101000a900473ffffffffffffffffffffffffffffffffffffffff1673ffffffffffffffffffffffffffffffffffffffff163373ffffffffffffffffffffffffffffffffffffffff161461030f576040517f08c379a000000000000000000000000000000000000000000000000000000000815260040180806020018281038252601d8152602001807f4f6e6c79206f776e65722063616e207472616e736665722066756e647300000081525060200191505060405180910390fd5b600154811115610387576040517f08c379a00000000000000000000000000000000000000000000000000000000081526004018080602001828103825260148152602001807f496e73756666696369656e742042616c616e636500000000000000000000000081525060200191505060405180910390fd5b8173ffffffffffffffffffffffffffffffffffffffff166108fc829081150290604051600060405180830381858888f193505050501580156103cd573d6000803e3d6000fd5b50806001600082825403925050819055505050565b60008173ffffffffffffffffffffffffffffffffffffffff16319050919050565b60008060009054906101000a900473ffffffffffffffffffffffffffffffffffffffff16905090565b6000809054906101000a900473ffffffffffffffffffffffffffffffffffffffff1681565b60015481565b3460016000828254019250508190555056fea2646970667358221220dc47a0811a3537568febc9a5b7f6cb45418f5cf6986194de55524613e08ff76d64736f6c63430006000033",
  "source": "pragma solidity >=0.4.22 <0.9.0;\n\ncontract AmtCollector {\n    address public owner;\n    uint public balance;\n\n    constructor() public {\n        owner = msg.sender;\n    }\n\n    function getOwner() public view returns (address) {\n        return owner;\n    }\n\n    function addAmt() public payable {\n        balance += msg.value;\n    }\n\n    function getAmt() public view returns (uint) {\n        return balance;\n    }\n\n    function balanceOf(address _addr) public view returns (uint) {\n        return _addr.balance;\n    }\n\n    function transferAmt(address payable _dst, uint _amt) public {\n        require(msg.sender == owner, 'Only owner can transfer funds');\n        require(_amt <= balance, 'Insufficient Balance');\n\n        _dst.transfer(_amt);\n        balance -= _amt;\n    }\n\n}",
  "sourcePath": "/root/react/lottery10/contracts/AmtCollector.sol",
  "compiler": {
    "name": "solc",
    "version": "0.6.0+commit.26b70077.Emscripten.clang"
  },
  "schemaVersion": "3.4.6",
  "updatedAt": "2022-06-07T11:17:17.946Z",
  "networkType": "ethereum",
  "devdoc": {
    "methods": {}
  },
  "userdoc": {
    "methods": {}
  }
}