{
  "contractName": "AmtCollector",
  "abi": [
    {
      "inputs": [],
      "stateMutability": "nonpayable",
      "type": "constructor"
    },
    {
      "inputs": [],
      "name": "balance",
      "outputs": [
        {
          "internalType": "uint256",
          "name": "",
          "type": "uint256"
        }
      ],
      "stateMutability": "view",
      "type": "function"
    },
    {
      "inputs": [],
      "name": "owner",
      "outputs": [
        {
          "internalType": "address",
          "name": "",
          "type": "address"
        }
      ],
      "stateMutability": "view",
      "type": "function"
    },
    {
      "inputs": [],
      "name": "addAmt",
      "outputs": [],
      "stateMutability": "payable",
      "type": "function"
    },
    {
      "inputs": [],
      "name": "getAmt",
      "outputs": [
        {
          "internalType": "uint256",
          "name": "",
          "type": "uint256"
        }
      ],
      "stateMutability": "view",
      "type": "function"
    },
    {
      "inputs": [
        {
          "internalType": "address payable",
          "name": "_dst",
          "type": "address"
        },
        {
          "internalType": "uint256",
          "name": "_amt",
          "type": "uint256"
        }
      ],
      "name": "transfer",
      "outputs": [],
      "stateMutability": "nonpayable",
      "type": "function"
    }
  ],
  "bytecode": "0x608060405234801561001057600080fd5b50336000806101000a81548173ffffffffffffffffffffffffffffffffffffffff021916908373ffffffffffffffffffffffffffffffffffffffff160217905550610373806100606000396000f3fe60806040526004361061004a5760003560e01c806315c191a91461004f5780638da5cb5b1461007a578063a9059cbb146100d1578063b69ef8a81461012c578063c65a18d514610157575b600080fd5b34801561005b57600080fd5b50610064610161565b6040518082815260200191505060405180910390f35b34801561008657600080fd5b5061008f61016b565b604051808273ffffffffffffffffffffffffffffffffffffffff1673ffffffffffffffffffffffffffffffffffffffff16815260200191505060405180910390f35b3480156100dd57600080fd5b5061012a600480360360408110156100f457600080fd5b81019080803573ffffffffffffffffffffffffffffffffffffffff16906020019092919080359060200190929190505050610190565b005b34801561013857600080fd5b50610141610325565b6040518082815260200191505060405180910390f35b61015f61032b565b005b6000600154905090565b6000809054906101000a900473ffffffffffffffffffffffffffffffffffffffff1681565b6000809054906101000a900473ffffffffffffffffffffffffffffffffffffffff1673ffffffffffffffffffffffffffffffffffffffff163373ffffffffffffffffffffffffffffffffffffffff1614610252576040517f08c379a000000000000000000000000000000000000000000000000000000000815260040180806020018281038252601d8152602001807f4f6e6c79206f776e65722063616e207472616e736665722066756e647300000081525060200191505060405180910390fd5b6001548111156102ca576040517f08c379a00000000000000000000000000000000000000000000000000000000081526004018080602001828103825260148152602001807f496e73756666696369656e742042616c616e636500000000000000000000000081525060200191505060405180910390fd5b8173ffffffffffffffffffffffffffffffffffffffff166108fc829081150290604051600060405180830381858888f19350505050158015610310573d6000803e3d6000fd5b50806001600082825403925050819055505050565b60015481565b3460016000828254019250508190555056fea2646970667358221220ba7cbc46635c5274ec89546e76e5c28e97d934460b682645de823f01cc161e0964736f6c63430006000033",
  "source": "pragma solidity >=0.4.22 <0.9.0;\n\n//pragma solidity >=0.4.21 <0.7.0;\n\ncontract AmtCollector {\n    address public owner;\n    uint public balance;\n\n    constructor() public {\n        owner = msg.sender;\n    }\n\n    function addAmt() external payable {\n        balance += msg.value;\n    }\n\n    function getAmt() public view returns (uint) {\n        return balance;\n    }\n\n    function transfer(address payable _dst, uint _amt) public {\n        require(msg.sender == owner, 'Only owner can transfer funds');\n        require(_amt <= balance, 'Insufficient Balance');\n\n        _dst.transfer(_amt);\n        balance -= _amt;\n    }\n\n}",
  "sourcePath": "/root/react/lottery10/contracts/AmtCollector.sol",
  "compiler": {
    "name": "solc",
    "version": "0.6.0+commit.26b70077.Emscripten.clang"
  },
  "schemaVersion": "3.4.6",
  "updatedAt": "2022-06-05T07:36:37.731Z",
  "devdoc": {
    "methods": {}
  },
  "userdoc": {
    "methods": {}
  }
}