{
  "contractName": "Lottery",
  "abi": [
    {
      "inputs": [],
      "stateMutability": "nonpayable",
      "type": "constructor"
    },
    {
      "inputs": [
        {
          "internalType": "address",
          "name": "",
          "type": "address"
        }
      ],
      "name": "members",
      "outputs": [
        {
          "internalType": "string",
          "name": "name",
          "type": "string"
        },
        {
          "internalType": "uint256",
          "name": "amt",
          "type": "uint256"
        },
        {
          "internalType": "bool",
          "name": "added",
          "type": "bool"
        },
        {
          "internalType": "uint256",
          "name": "id",
          "type": "uint256"
        }
      ],
      "stateMutability": "view",
      "type": "function"
    },
    {
      "inputs": [],
      "name": "owner",
      "outputs": [
        {
          "internalType": "address",
          "name": "",
          "type": "address"
        }
      ],
      "stateMutability": "view",
      "type": "function"
    },
    {
      "inputs": [
        {
          "internalType": "uint256",
          "name": "",
          "type": "uint256"
        }
      ],
      "name": "peers",
      "outputs": [
        {
          "internalType": "address",
          "name": "",
          "type": "address"
        }
      ],
      "stateMutability": "view",
      "type": "function"
    },
    {
      "inputs": [
        {
          "internalType": "uint256",
          "name": "",
          "type": "uint256"
        }
      ],
      "name": "winners",
      "outputs": [
        {
          "internalType": "address",
          "name": "",
          "type": "address"
        }
      ],
      "stateMutability": "view",
      "type": "function"
    },
    {
      "inputs": [],
      "name": "getOwner",
      "outputs": [
        {
          "internalType": "address",
          "name": "",
          "type": "address"
        }
      ],
      "stateMutability": "view",
      "type": "function"
    },
    {
      "inputs": [
        {
          "internalType": "address",
          "name": "_addr",
          "type": "address"
        },
        {
          "internalType": "string",
          "name": "_name",
          "type": "string"
        },
        {
          "internalType": "uint256",
          "name": "_amt",
          "type": "uint256"
        }
      ],
      "name": "addMember",
      "outputs": [],
      "stateMutability": "nonpayable",
      "type": "function"
    },
    {
      "inputs": [
        {
          "internalType": "address",
          "name": "_addr",
          "type": "address"
        }
      ],
      "name": "removeMember",
      "outputs": [],
      "stateMutability": "nonpayable",
      "type": "function"
    },
    {
      "inputs": [
        {
          "internalType": "address",
          "name": "_addr",
          "type": "address"
        }
      ],
      "name": "getId",
      "outputs": [
        {
          "internalType": "uint256",
          "name": "",
          "type": "uint256"
        }
      ],
      "stateMutability": "view",
      "type": "function"
    },
    {
      "inputs": [],
      "name": "numPeers",
      "outputs": [
        {
          "internalType": "uint256",
          "name": "",
          "type": "uint256"
        }
      ],
      "stateMutability": "view",
      "type": "function"
    },
    {
      "inputs": [
        {
          "internalType": "address",
          "name": "_addr",
          "type": "address"
        }
      ],
      "name": "exists",
      "outputs": [
        {
          "internalType": "bool",
          "name": "",
          "type": "bool"
        }
      ],
      "stateMutability": "view",
      "type": "function"
    },
    {
      "inputs": [],
      "name": "roundCompleted",
      "outputs": [
        {
          "internalType": "uint256",
          "name": "",
          "type": "uint256"
        }
      ],
      "stateMutability": "view",
      "type": "function"
    },
    {
      "inputs": [],
      "name": "currentRound",
      "outputs": [
        {
          "internalType": "uint256",
          "name": "",
          "type": "uint256"
        }
      ],
      "stateMutability": "view",
      "type": "function"
    },
    {
      "inputs": [
        {
          "internalType": "uint256",
          "name": "_seed",
          "type": "uint256"
        }
      ],
      "name": "draw",
      "outputs": [],
      "stateMutability": "nonpayable",
      "type": "function"
    },
    {
      "inputs": [
        {
          "internalType": "uint256",
          "name": "rnd",
          "type": "uint256"
        }
      ],
      "name": "getWinner",
      "outputs": [
        {
          "internalType": "address",
          "name": "",
          "type": "address"
        }
      ],
      "stateMutability": "view",
      "type": "function"
    }
  ],
  "bytecode": "0x608060405234801561001057600080fd5b5033600360006101000a81548173ffffffffffffffffffffffffffffffffffffffff021916908373ffffffffffffffffffffffffffffffffffffffff16021790555060016004819055506000600581905550611098806100716000396000f3fe608060405234801561001057600080fd5b50600436106100ea5760003560e01c8063893d20e81161008c578063a2fb117511610066578063a2fb1175146104b2578063be4f3e8f14610520578063f56491b91461058e578063f6a3d24e146105ac576100ea565b8063893d20e8146104005780638a19c8bc1461044a5780638da5cb5b14610468576100ea565b80633b304147116100c85780633b304147146102ee5780634129b2c91461031c57806365f68c891461038a57806379a4753c146103e2576100ea565b806308ae4b0c146100ef5780630b1ca49a146101c55780631b76071914610209575b600080fd5b6101316004803603602081101561010557600080fd5b81019080803573ffffffffffffffffffffffffffffffffffffffff169060200190929190505050610608565b604051808060200185815260200184151515158152602001838152602001828103825286818151815260200191508051906020019080838360005b8381101561018757808201518184015260208101905061016c565b50505050905090810190601f1680156101b45780820380516001836020036101000a031916815260200191505b509550505050505060405180910390f35b610207600480360360208110156101db57600080fd5b81019080803573ffffffffffffffffffffffffffffffffffffffff1690602001909291905050506106dd565b005b6102ec6004803603606081101561021f57600080fd5b81019080803573ffffffffffffffffffffffffffffffffffffffff1690602001909291908035906020019064010000000081111561025c57600080fd5b82018360208201111561026e57600080fd5b8035906020019184600183028401116401000000008311171561029057600080fd5b91908080601f016020809104026020016040519081016040528093929190818152602001838380828437600081840152601f19601f8201169050808301925050505050505091929192908035906020019092919050505061083c565b005b61031a6004803603602081101561030457600080fd5b8101908080359060200190929190505050610a50565b005b6103486004803603602081101561033257600080fd5b8101908080359060200190929190505050610baf565b604051808273ffffffffffffffffffffffffffffffffffffffff1673ffffffffffffffffffffffffffffffffffffffff16815260200191505060405180910390f35b6103cc600480360360208110156103a057600080fd5b81019080803573ffffffffffffffffffffffffffffffffffffffff169060200190929190505050610c07565b6040518082815260200191505060405180910390f35b6103ea610c52565b6040518082815260200191505060405180910390f35b610408610c5c565b604051808273ffffffffffffffffffffffffffffffffffffffff1673ffffffffffffffffffffffffffffffffffffffff16815260200191505060405180910390f35b610452610c86565b6040518082815260200191505060405180910390f35b610470610c90565b604051808273ffffffffffffffffffffffffffffffffffffffff1673ffffffffffffffffffffffffffffffffffffffff16815260200191505060405180910390f35b6104de600480360360208110156104c857600080fd5b8101908080359060200190929190505050610cb6565b604051808273ffffffffffffffffffffffffffffffffffffffff1673ffffffffffffffffffffffffffffffffffffffff16815260200191505060405180910390f35b61054c6004803603602081101561053657600080fd5b8101908080359060200190929190505050610ce9565b604051808273ffffffffffffffffffffffffffffffffffffffff1673ffffffffffffffffffffffffffffffffffffffff16815260200191505060405180910390f35b610596610d1c565b6040518082815260200191505060405180910390f35b6105ee600480360360208110156105c257600080fd5b81019080803573ffffffffffffffffffffffffffffffffffffffff169060200190929190505050610d29565b604051808215151515815260200191505060405180910390f35b6000602052806000526040600020600091509050806000018054600181600116156101000203166002900480601f0160208091040260200160405190810160405280929190818152602001828054600181600116156101000203166002900480156106b45780601f10610689576101008083540402835291602001916106b4565b820191906000526020600020905b81548152906001019060200180831161069757829003601f168201915b5050505050908060010154908060020160009054906101000a900460ff16908060030154905084565b6000808273ffffffffffffffffffffffffffffffffffffffff1673ffffffffffffffffffffffffffffffffffffffff16815260200190815260200160002060020160009054906101000a900460ff1661073557610839565b60008060008373ffffffffffffffffffffffffffffffffffffffff1673ffffffffffffffffffffffffffffffffffffffff1681526020019081526020016000206003015490506001600082815260200190815260200160002060006101000a81549073ffffffffffffffffffffffffffffffffffffffff02191690556000808373ffffffffffffffffffffffffffffffffffffffff1673ffffffffffffffffffffffffffffffffffffffff168152602001908152602001600020600080820160006108009190610f33565b60018201600090556002820160006101000a81549060ff0219169055600382016000905550506001600560008282540392505081905550505b50565b600a60055410801561089a57506000808473ffffffffffffffffffffffffffffffffffffffff1673ffffffffffffffffffffffffffffffffffffffff16815260200190815260200160002060020160009054906101000a900460ff16155b15610a4b5760008060008573ffffffffffffffffffffffffffffffffffffffff1673ffffffffffffffffffffffffffffffffffffffff1681526020019081526020016000209050828160000190805190602001906108f9929190610f7b565b5081816001018190555060018160020160006101000a81548160ff0219169083151502179055506000600190505b600a8111610a375760016000600b815260200190815260200160002060009054906101000a900473ffffffffffffffffffffffffffffffffffffffff1673ffffffffffffffffffffffffffffffffffffffff166001600083815260200190815260200160002060009054906101000a900473ffffffffffffffffffffffffffffffffffffffff1673ffffffffffffffffffffffffffffffffffffffff161415610a2a57808260030181905550846001600083815260200190815260200160002060006101000a81548173ffffffffffffffffffffffffffffffffffffffff021916908373ffffffffffffffffffffffffffffffffffffffff160217905550610a37565b8080600101915050610927565b506001600560008282540192505081905550505b505050565b600360009054906101000a900473ffffffffffffffffffffffffffffffffffffffff1673ffffffffffffffffffffffffffffffffffffffff163373ffffffffffffffffffffffffffffffffffffffff1614610af6576040517f08c379a00000000000000000000000000000000000000000000000000000000081526004018080602001828103825260218152602001806110426021913960400191505060405180910390fd5b600081118015610b065750600b81105b15610bac576001600082815260200190815260200160002060009054906101000a900473ffffffffffffffffffffffffffffffffffffffff1660026000600454815260200190815260200160002060006101000a81548173ffffffffffffffffffffffffffffffffffffffff021916908373ffffffffffffffffffffffffffffffffffffffff1602179055506001600460008282540192505081905550610bab610d81565b5b50565b60008082118015610bc1575060045482105b15610c01576002600083815260200190815260200160002060009054906101000a900473ffffffffffffffffffffffffffffffffffffffff169050610c02565b5b919050565b60008060008373ffffffffffffffffffffffffffffffffffffffff1673ffffffffffffffffffffffffffffffffffffffff168152602001908152602001600020600301549050919050565b6000600554905090565b6000600360009054906101000a900473ffffffffffffffffffffffffffffffffffffffff16905090565b6000600454905090565b600360009054906101000a900473ffffffffffffffffffffffffffffffffffffffff1681565b60026020528060005260406000206000915054906101000a900473ffffffffffffffffffffffffffffffffffffffff1681565b60016020528060005260406000206000915054906101000a900473ffffffffffffffffffffffffffffffffffffffff1681565b6000600160045403905090565b60008060008373ffffffffffffffffffffffffffffffffffffffff1673ffffffffffffffffffffffffffffffffffffffff16815260200190815260200160002060020160009054906101000a900460ff169050919050565b600360009054906101000a900473ffffffffffffffffffffffffffffffffffffffff1673ffffffffffffffffffffffffffffffffffffffff163373ffffffffffffffffffffffffffffffffffffffff1614610e27576040517f08c379a00000000000000000000000000000000000000000000000000000000081526004018080602001828103825260218152602001806110216021913960400191505060405180910390fd5b6000600190505b6005548111610f285760006001600083815260200190815260200160002060009054906101000a900473ffffffffffffffffffffffffffffffffffffffff1690506000808273ffffffffffffffffffffffffffffffffffffffff1673ffffffffffffffffffffffffffffffffffffffff16815260200190815260200160002060008082016000610ebe9190610f33565b60018201600090556002820160006101000a81549060ff0219169055600382016000905550506001600083815260200190815260200160002060006101000a81549073ffffffffffffffffffffffffffffffffffffffff0219169055508080600101915050610e2e565b506000600581905550565b50805460018160011615610100020316600290046000825580601f10610f595750610f78565b601f016020900490600052602060002090810190610f779190610ffb565b5b50565b828054600181600116156101000203166002900490600052602060002090601f016020900481019282601f10610fbc57805160ff1916838001178555610fea565b82800160010185558215610fea579182015b82811115610fe9578251825591602001919060010190610fce565b5b509050610ff79190610ffb565b5090565b61101d91905b80821115611019576000816000905550600101611001565b5090565b9056fe4f6e6c79206f776e65722063616e2063616c6c20746869732066756e6374696f6e4f6e6c79204f6e7765722063616e2063616c6c20746869732066756e6374696f6ea2646970667358221220cf291fa4eb13ce7e828c29504ae5de927ec5ca4ba965a8579f24fcb6c5ccf46664736f6c63430006000033",
  "source": "pragma solidity >=0.4.21 <0.7.0;\n\ncontract Lottery {\n\n    struct Member {\n        string name;\n        uint amt;\n        bool added;\n        uint id;\n    }\n\n    mapping(address => Member) public members;\n    mapping(uint => address) public peers;\n    mapping(uint => address) public winners;\n    address public owner;\n    uint round;\n    uint num;\n\n    constructor() public {\n        owner = msg.sender;\n        round = 1;\n        num = 0;\n    }\n\n    function getOwner() public view returns (address) {\n        return owner;\n    }\n\n    function addMember(address _addr, string memory _name, uint _amt) public {\n        if (num < 10 && !members[_addr].added) {\n            Member storage member = members[_addr];\n            member.name = _name;\n            member.amt = _amt;\n            member.added = true;\n            for (uint i = 1; i <= 10; i++) {\n                if (peers[i] == peers[11]) {\n                    member.id = i;\n                    peers[i] = _addr;\n                    break;\n                }\n            }\n            num += 1;\n        }\n    }\n\n    function removeMember(address _addr) public {\n        if (!members[_addr].added) {\n            return;\n        }\n        uint id = members[_addr].id;\n        delete peers[id];\n        delete members[_addr];\n        num -= 1;\n    }\n\n    function getId(address _addr) public view returns (uint) {\n        return members[_addr].id;\n    }\n\n    function numPeers() public view returns (uint) {\n        return num;\n    }\n\n    function exists(address _addr) public view returns (bool) {\n        return members[_addr].added;\n    }\n\n    function roundCompleted() public view returns (uint) {\n        return (round - 1);\n    }\n\n    function currentRound() public view returns (uint) {\n        return round;\n    }\n\n    function reset() internal {\n        require(msg.sender == owner, 'Only owner can call this function');\n        for (uint i = 1; i <= num; i++) {\n            address addr = peers[i];\n            delete members[addr];\n            delete peers[i];\n        }\n        num = 0;\n    }\n\n    function draw(uint _seed) public {\n        require(msg.sender == owner, 'Only Onwer can call this function');\n        if (_seed > 0 && _seed < 11) {\n            winners[round] = peers[_seed];\n            round += 1;\n            reset();\n        }\n    }\n\n    function getWinner(uint rnd) public view returns (address) {\n        if (rnd > 0 && rnd < round) {\n            return winners[rnd];\n        }\n    }\n}",
  "sourcePath": "/root/react/lottery10/contracts/Lottery.sol",
  "compiler": {
    "name": "solc",
    "version": "0.6.0+commit.26b70077.Emscripten.clang"
  },
  "schemaVersion": "3.4.6",
  "updatedAt": "2022-06-03T10:10:46.755Z",
  "devdoc": {
    "methods": {}
  },
  "userdoc": {
    "methods": {}
  }
}