{
  "contractName": "Lottery",
  "abi": [
    {
      "inputs": [],
      "stateMutability": "nonpayable",
      "type": "constructor"
    },
    {
      "inputs": [
        {
          "internalType": "address",
          "name": "",
          "type": "address"
        }
      ],
      "name": "members",
      "outputs": [
        {
          "internalType": "string",
          "name": "name",
          "type": "string"
        },
        {
          "internalType": "uint256",
          "name": "amt",
          "type": "uint256"
        },
        {
          "internalType": "bool",
          "name": "added",
          "type": "bool"
        },
        {
          "internalType": "uint256",
          "name": "id",
          "type": "uint256"
        }
      ],
      "stateMutability": "view",
      "type": "function",
      "constant": true
    },
    {
      "inputs": [],
      "name": "owner",
      "outputs": [
        {
          "internalType": "address",
          "name": "",
          "type": "address"
        }
      ],
      "stateMutability": "view",
      "type": "function",
      "constant": true
    },
    {
      "inputs": [
        {
          "internalType": "uint256",
          "name": "",
          "type": "uint256"
        }
      ],
      "name": "peers",
      "outputs": [
        {
          "internalType": "address",
          "name": "",
          "type": "address"
        }
      ],
      "stateMutability": "view",
      "type": "function",
      "constant": true
    },
    {
      "inputs": [
        {
          "internalType": "uint256",
          "name": "",
          "type": "uint256"
        }
      ],
      "name": "wins",
      "outputs": [
        {
          "internalType": "address",
          "name": "addr",
          "type": "address"
        },
        {
          "internalType": "uint256",
          "name": "round",
          "type": "uint256"
        },
        {
          "internalType": "uint256",
          "name": "amt",
          "type": "uint256"
        },
        {
          "internalType": "bool",
          "name": "decided",
          "type": "bool"
        }
      ],
      "stateMutability": "view",
      "type": "function",
      "constant": true
    },
    {
      "inputs": [],
      "name": "getOwner",
      "outputs": [
        {
          "internalType": "address",
          "name": "",
          "type": "address"
        }
      ],
      "stateMutability": "view",
      "type": "function",
      "constant": true
    },
    {
      "inputs": [
        {
          "internalType": "address",
          "name": "_addr",
          "type": "address"
        },
        {
          "internalType": "string",
          "name": "_name",
          "type": "string"
        },
        {
          "internalType": "uint256",
          "name": "_amt",
          "type": "uint256"
        }
      ],
      "name": "addMember",
      "outputs": [],
      "stateMutability": "nonpayable",
      "type": "function"
    },
    {
      "inputs": [
        {
          "internalType": "address",
          "name": "_addr",
          "type": "address"
        }
      ],
      "name": "removeMember",
      "outputs": [],
      "stateMutability": "nonpayable",
      "type": "function"
    },
    {
      "inputs": [
        {
          "internalType": "address",
          "name": "_addr",
          "type": "address"
        }
      ],
      "name": "getId",
      "outputs": [
        {
          "internalType": "uint256",
          "name": "",
          "type": "uint256"
        }
      ],
      "stateMutability": "view",
      "type": "function",
      "constant": true
    },
    {
      "inputs": [],
      "name": "totalFunds",
      "outputs": [
        {
          "internalType": "uint256",
          "name": "",
          "type": "uint256"
        }
      ],
      "stateMutability": "view",
      "type": "function",
      "constant": true
    },
    {
      "inputs": [],
      "name": "numPeers",
      "outputs": [
        {
          "internalType": "uint256",
          "name": "",
          "type": "uint256"
        }
      ],
      "stateMutability": "view",
      "type": "function",
      "constant": true
    },
    {
      "inputs": [
        {
          "internalType": "address",
          "name": "_addr",
          "type": "address"
        }
      ],
      "name": "exists",
      "outputs": [
        {
          "internalType": "bool",
          "name": "",
          "type": "bool"
        }
      ],
      "stateMutability": "view",
      "type": "function",
      "constant": true
    },
    {
      "inputs": [],
      "name": "roundCompleted",
      "outputs": [
        {
          "internalType": "uint256",
          "name": "",
          "type": "uint256"
        }
      ],
      "stateMutability": "view",
      "type": "function",
      "constant": true
    },
    {
      "inputs": [],
      "name": "currentRound",
      "outputs": [
        {
          "internalType": "uint256",
          "name": "",
          "type": "uint256"
        }
      ],
      "stateMutability": "view",
      "type": "function",
      "constant": true
    },
    {
      "inputs": [
        {
          "internalType": "uint256",
          "name": "_seed",
          "type": "uint256"
        }
      ],
      "name": "draw",
      "outputs": [],
      "stateMutability": "nonpayable",
      "type": "function"
    },
    {
      "inputs": [
        {
          "internalType": "uint256",
          "name": "_rnd",
          "type": "uint256"
        }
      ],
      "name": "getWinner",
      "outputs": [
        {
          "internalType": "address",
          "name": "addr",
          "type": "address"
        },
        {
          "internalType": "uint256",
          "name": "rnd",
          "type": "uint256"
        },
        {
          "internalType": "uint256",
          "name": "amt",
          "type": "uint256"
        }
      ],
      "stateMutability": "view",
      "type": "function",
      "constant": true
    }
  ],
  "bytecode": "0x608060405234801561001057600080fd5b5033600360006101000a81548173ffffffffffffffffffffffffffffffffffffffff021916908373ffffffffffffffffffffffffffffffffffffffff1602179055506001600481905550600060058190555060006006819055506112d9806100796000396000f3fe608060405234801561001057600080fd5b50600436106100f55760003560e01c806380bfe88311610097578063968ed60011610066578063968ed60014610552578063be4f3e8f14610570578063f56491b9146105de578063f6a3d24e146105fc576100f5565b806380bfe88314610419578063893d20e8146104a05780638a19c8bc146104ea5780638da5cb5b14610508576100f5565b80633b304147116100d35780633b304147146102f95780634129b2c91461032757806365f68c89146103a357806379a4753c146103fb576100f5565b806308ae4b0c146100fa5780630b1ca49a146101d05780631b76071914610214575b600080fd5b61013c6004803603602081101561011057600080fd5b81019080803573ffffffffffffffffffffffffffffffffffffffff169060200190929190505050610658565b604051808060200185815260200184151515158152602001838152602001828103825286818151815260200191508051906020019080838360005b83811015610192578082015181840152602081019050610177565b50505050905090810190601f1680156101bf5780820380516001836020036101000a031916815260200191505b509550505050505060405180910390f35b610212600480360360208110156101e657600080fd5b81019080803573ffffffffffffffffffffffffffffffffffffffff16906020019092919050505061072d565b005b6102f76004803603606081101561022a57600080fd5b81019080803573ffffffffffffffffffffffffffffffffffffffff1690602001909291908035906020019064010000000081111561026757600080fd5b82018360208201111561027957600080fd5b8035906020019184600183028401116401000000008311171561029b57600080fd5b91908080601f016020809104026020016040519081016040528093929190818152602001838380828437600081840152601f19601f820116905080830192505050505050509192919290803590602001909291905050506108dd565b005b6103256004803603602081101561030f57600080fd5b8101908080359060200190929190505050610b01565b005b6103536004803603602081101561033d57600080fd5b8101908080359060200190929190505050610d15565b604051808473ffffffffffffffffffffffffffffffffffffffff1673ffffffffffffffffffffffffffffffffffffffff168152602001838152602001828152602001935050505060405180910390f35b6103e5600480360360208110156103b957600080fd5b81019080803573ffffffffffffffffffffffffffffffffffffffff169060200190929190505050610dd3565b6040518082815260200191505060405180910390f35b610403610e1e565b6040518082815260200191505060405180910390f35b6104456004803603602081101561042f57600080fd5b8101908080359060200190929190505050610e28565b604051808573ffffffffffffffffffffffffffffffffffffffff1673ffffffffffffffffffffffffffffffffffffffff1681526020018481526020018381526020018215151515815260200194505050505060405180910390f35b6104a8610e85565b604051808273ffffffffffffffffffffffffffffffffffffffff1673ffffffffffffffffffffffffffffffffffffffff16815260200191505060405180910390f35b6104f2610eaf565b6040518082815260200191505060405180910390f35b610510610eb9565b604051808273ffffffffffffffffffffffffffffffffffffffff1673ffffffffffffffffffffffffffffffffffffffff16815260200191505060405180910390f35b61055a610edf565b6040518082815260200191505060405180910390f35b61059c6004803603602081101561058657600080fd5b8101908080359060200190929190505050610ee9565b604051808273ffffffffffffffffffffffffffffffffffffffff1673ffffffffffffffffffffffffffffffffffffffff16815260200191505060405180910390f35b6105e6610f1c565b6040518082815260200191505060405180910390f35b61063e6004803603602081101561061257600080fd5b81019080803573ffffffffffffffffffffffffffffffffffffffff169060200190929190505050610f29565b604051808215151515815260200191505060405180910390f35b6000602052806000526040600020600091509050806000018054600181600116156101000203166002900480601f0160208091040260200160405190810160405280929190818152602001828054600181600116156101000203166002900480156107045780601f106106d957610100808354040283529160200191610704565b820191906000526020600020905b8154815290600101906020018083116106e757829003601f168201915b5050505050908060010154908060020160009054906101000a900460ff16908060030154905084565b6000808273ffffffffffffffffffffffffffffffffffffffff1673ffffffffffffffffffffffffffffffffffffffff16815260200190815260200160002060020160009054906101000a900460ff16610785576108da565b6000808273ffffffffffffffffffffffffffffffffffffffff1673ffffffffffffffffffffffffffffffffffffffff1681526020019081526020016000206001015460066000828254039250508190555060008060008373ffffffffffffffffffffffffffffffffffffffff1673ffffffffffffffffffffffffffffffffffffffff1681526020019081526020016000206003015490506002600082815260200190815260200160002060006101000a81549073ffffffffffffffffffffffffffffffffffffffff02191690556000808373ffffffffffffffffffffffffffffffffffffffff1673ffffffffffffffffffffffffffffffffffffffff168152602001908152602001600020600080820160006108a1919061114c565b60018201600090556002820160006101000a81549060ff0219169055600382016000905550506001600560008282540392505081905550505b50565b600a60055410801561093b57506000808473ffffffffffffffffffffffffffffffffffffffff1673ffffffffffffffffffffffffffffffffffffffff16815260200190815260200160002060020160009054906101000a900460ff16155b15610afc5760008060008573ffffffffffffffffffffffffffffffffffffffff1673ffffffffffffffffffffffffffffffffffffffff16815260200190815260200160002090508281600001908051906020019061099a929190611194565b5081816001018190555060018160020160006101000a81548160ff0219169083151502179055506000600190505b600a8111610ad85760026000600b815260200190815260200160002060009054906101000a900473ffffffffffffffffffffffffffffffffffffffff1673ffffffffffffffffffffffffffffffffffffffff166002600083815260200190815260200160002060009054906101000a900473ffffffffffffffffffffffffffffffffffffffff1673ffffffffffffffffffffffffffffffffffffffff161415610acb57808260030181905550846002600083815260200190815260200160002060006101000a81548173ffffffffffffffffffffffffffffffffffffffff021916908373ffffffffffffffffffffffffffffffffffffffff160217905550610ad8565b80806001019150506109c8565b50600160056000828254019250508190555081600660008282540192505081905550505b505050565b600360009054906101000a900473ffffffffffffffffffffffffffffffffffffffff1673ffffffffffffffffffffffffffffffffffffffff163373ffffffffffffffffffffffffffffffffffffffff1614610ba7576040517f08c379a00000000000000000000000000000000000000000000000000000000081526004018080602001828103825260218152602001806112836021913960400191505060405180910390fd5b600a60055414610c02576040517f08c379a000000000000000000000000000000000000000000000000000000000815260040180806020018281038252602881526020018061125b6028913960400191505060405180910390fd5b600081118015610c125750600b81105b8015610c41575060016000600454815260200190815260200160002060030160009054906101000a900460ff16155b15610d1257600060016000600454815260200190815260200160002090506002600083815260200190815260200160002060009054906101000a900473ffffffffffffffffffffffffffffffffffffffff168160000160006101000a81548173ffffffffffffffffffffffffffffffffffffffff021916908373ffffffffffffffffffffffffffffffffffffffff1602179055506004548160010181905550600654816002018190555060018160030160006101000a81548160ff021916908315150217905550610d10610f81565b505b50565b60008060008084118015610d2a575060045484105b8015610d5657506001600085815260200190815260200160002060030160009054906101000a900460ff165b15610dcb576001600085815260200190815260200160002060000160009054906101000a900473ffffffffffffffffffffffffffffffffffffffff1660016000868152602001908152602001600020600101546001600087815260200190815260200160002060020154925092509250610dcc565b5b9193909250565b60008060008373ffffffffffffffffffffffffffffffffffffffff1673ffffffffffffffffffffffffffffffffffffffff168152602001908152602001600020600301549050919050565b6000600554905090565b60016020528060005260406000206000915090508060000160009054906101000a900473ffffffffffffffffffffffffffffffffffffffff16908060010154908060020154908060030160009054906101000a900460ff16905084565b6000600360009054906101000a900473ffffffffffffffffffffffffffffffffffffffff16905090565b6000600454905090565b600360009054906101000a900473ffffffffffffffffffffffffffffffffffffffff1681565b6000600654905090565b60026020528060005260406000206000915054906101000a900473ffffffffffffffffffffffffffffffffffffffff1681565b6000600160045403905090565b60008060008373ffffffffffffffffffffffffffffffffffffffff1673ffffffffffffffffffffffffffffffffffffffff16815260200190815260200160002060020160009054906101000a900460ff169050919050565b600360009054906101000a900473ffffffffffffffffffffffffffffffffffffffff1673ffffffffffffffffffffffffffffffffffffffff163373ffffffffffffffffffffffffffffffffffffffff1614611027576040517f08c379a000000000000000000000000000000000000000000000000000000000815260040180806020018281038252602181526020018061123a6021913960400191505060405180910390fd5b6000600190505b60055481116111285760006002600083815260200190815260200160002060009054906101000a900473ffffffffffffffffffffffffffffffffffffffff1690506000808273ffffffffffffffffffffffffffffffffffffffff1673ffffffffffffffffffffffffffffffffffffffff168152602001908152602001600020600080820160006110be919061114c565b60018201600090556002820160006101000a81549060ff0219169055600382016000905550506002600083815260200190815260200160002060006101000a81549073ffffffffffffffffffffffffffffffffffffffff021916905550808060010191505061102e565b50600160046000828254019250508190555060006005819055506000600681905550565b50805460018160011615610100020316600290046000825580601f106111725750611191565b601f0160209004906000526020600020908101906111909190611214565b5b50565b828054600181600116156101000203166002900490600052602060002090601f016020900481019282601f106111d557805160ff1916838001178555611203565b82800160010185558215611203579182015b828111156112025782518255916020019190600101906111e7565b5b5090506112109190611214565b5090565b61123691905b8082111561123257600081600090555060010161121a565b5090565b9056fe4f6e6c79206f776e65722063616e2063616c6c20746869732066756e6374696f6e546f74616c206e756d206f662070656572732072656769737465726564206d7573742062652031304f6e6c79204f6e7765722063616e2063616c6c20746869732066756e6374696f6ea26469706673582212202e034e12741feca7ae63919457fda879ad02ddf258de211c8931f8705aab0e3164736f6c63430006000033",
  "source": "pragma solidity >=0.4.22 <0.9.0;\n\ncontract Lottery {\n\n    struct Member {\n        string name;\n        uint amt;\n        bool added;\n        uint id;\n    }\n\n    struct Winner {\n        address addr;\n        uint round;\n        uint amt;\n        bool decided;\n    }\n\n    mapping(address => Member) public members;\n    mapping(uint => Winner) public wins;\n    mapping(uint => address) public peers;\n    address public owner;\n    uint round;\n    uint num;\n    uint total;\n\n    constructor() public {\n        owner = msg.sender; // init owner\n        round = 1; // init current round\n        num = 0; // init total num of peers registered\n        total = 0; // init total amt;\n    }\n\n    function getOwner() public view returns (address) {\n        return owner;\n    }\n\n    function addMember(address _addr, string memory _name, uint _amt) public {\n        if (num < 10 && !members[_addr].added) {\n            Member storage member = members[_addr];\n            member.name = _name;\n            member.amt = _amt;\n            member.added = true;\n            for (uint i = 1; i <= 10; i++) {\n                if (peers[i] == peers[11]) {\n                    member.id = i;\n                    peers[i] = _addr;\n                    break;\n                }\n            }\n            num += 1;\n            total += _amt;\n        }\n    }\n\n    function removeMember(address _addr) public {\n        if (!members[_addr].added) {\n            return;\n        }\n        total -= members[_addr].amt;\n        uint id = members[_addr].id;\n        delete peers[id];\n        delete members[_addr];\n        num -= 1;\n    }\n\n    function getId(address _addr) public view returns (uint) {\n        return members[_addr].id;\n    }\n\n    function totalFunds() public view returns (uint) {\n        return total;\n    }\n\n    function numPeers() public view returns (uint) {\n        return num;\n    }\n\n    function exists(address _addr) public view returns (bool) {\n        return members[_addr].added;\n    }\n\n    function roundCompleted() public view returns (uint) {\n        return (round - 1);\n    }\n\n    function currentRound() public view returns (uint) {\n        return round;\n    }\n\n    function reset() internal {\n        require(msg.sender == owner, 'Only owner can call this function');\n        for (uint i = 1; i <= num; i++) {\n            address addr = peers[i];\n            delete members[addr];\n            delete peers[i];\n        }\n        round += 1;\n        num = 0;\n        total = 0;\n    }\n\n    function draw(uint _seed) public {\n        require(msg.sender == owner, 'Only Onwer can call this function');\n        require(num == 10, 'Total num of peers registered must be 10');\n        if (_seed > 0 && _seed < 11 && !wins[round].decided) {\n            Winner storage winner = wins[round];\n            winner.addr = peers[_seed];\n            winner.round = round;\n            winner.amt = total;\n            winner.decided = true;\n            reset();\n        }\n    }\n\n    function getWinner(uint _rnd) public view returns (address addr, uint rnd, uint amt) {\n        if (_rnd > 0 && _rnd < round && wins[_rnd].decided) {\n            return (wins[_rnd].addr, wins[_rnd].round, wins[_rnd].amt);\n        }\n    }\n}",
  "sourcePath": "/root/react/lottery10/contracts/Lottery.sol",
  "compiler": {
    "name": "solc",
    "version": "0.6.0+commit.26b70077.Emscripten.clang"
  },
  "schemaVersion": "3.4.6",
  "updatedAt": "2022-06-07T11:17:17.498Z",
  "networkType": "ethereum",
  "devdoc": {
    "methods": {}
  },
  "userdoc": {
    "methods": {}
  }
}