{
  "contractName": "Lottery",
  "abi": [
    {
      "inputs": [
        {
          "internalType": "uint64",
          "name": "subscriptionId",
          "type": "uint64"
        }
      ],
      "stateMutability": "nonpayable",
      "type": "constructor"
    },
    {
      "inputs": [
        {
          "internalType": "address",
          "name": "have",
          "type": "address"
        },
        {
          "internalType": "address",
          "name": "want",
          "type": "address"
        }
      ],
      "name": "OnlyCoordinatorCanFulfill",
      "type": "error"
    },
    {
      "anonymous": false,
      "inputs": [
        {
          "indexed": false,
          "internalType": "uint256",
          "name": "round",
          "type": "uint256"
        },
        {
          "indexed": false,
          "internalType": "address",
          "name": "member",
          "type": "address"
        }
      ],
      "name": "MemberJoin",
      "type": "event"
    },
    {
      "anonymous": false,
      "inputs": [
        {
          "indexed": false,
          "internalType": "uint256",
          "name": "round",
          "type": "uint256"
        },
        {
          "indexed": false,
          "internalType": "address",
          "name": "member",
          "type": "address"
        }
      ],
      "name": "MemberWithdraw",
      "type": "event"
    },
    {
      "anonymous": false,
      "inputs": [
        {
          "indexed": false,
          "internalType": "uint256",
          "name": "round",
          "type": "uint256"
        },
        {
          "indexed": false,
          "internalType": "uint256",
          "name": "amt",
          "type": "uint256"
        },
        {
          "indexed": false,
          "internalType": "address",
          "name": "addr",
          "type": "address"
        }
      ],
      "name": "WinnerRedeem",
      "type": "event"
    },
    {
      "anonymous": false,
      "inputs": [
        {
          "indexed": false,
          "internalType": "uint256",
          "name": "requestId",
          "type": "uint256"
        },
        {
          "indexed": false,
          "internalType": "uint32",
          "name": "draw",
          "type": "uint32"
        }
      ],
      "name": "initRandomSetup",
      "type": "event"
    },
    {
      "inputs": [],
      "name": "owner",
      "outputs": [
        {
          "internalType": "address",
          "name": "",
          "type": "address"
        }
      ],
      "stateMutability": "view",
      "type": "function"
    },
    {
      "inputs": [
        {
          "internalType": "uint256",
          "name": "requestId",
          "type": "uint256"
        },
        {
          "internalType": "uint256[]",
          "name": "randomWords",
          "type": "uint256[]"
        }
      ],
      "name": "rawFulfillRandomWords",
      "outputs": [],
      "stateMutability": "nonpayable",
      "type": "function"
    },
    {
      "inputs": [],
      "name": "round",
      "outputs": [
        {
          "internalType": "uint256",
          "name": "",
          "type": "uint256"
        }
      ],
      "stateMutability": "view",
      "type": "function"
    },
    {
      "inputs": [],
      "name": "getOwner",
      "outputs": [
        {
          "internalType": "address",
          "name": "",
          "type": "address"
        }
      ],
      "stateMutability": "view",
      "type": "function"
    },
    {
      "inputs": [
        {
          "internalType": "address",
          "name": "_addr",
          "type": "address"
        },
        {
          "internalType": "string",
          "name": "",
          "type": "string"
        },
        {
          "internalType": "uint256",
          "name": "_amt",
          "type": "uint256"
        }
      ],
      "name": "addMember",
      "outputs": [],
      "stateMutability": "payable",
      "type": "function"
    },
    {
      "inputs": [
        {
          "internalType": "address",
          "name": "_addr",
          "type": "address"
        }
      ],
      "name": "withdraw",
      "outputs": [],
      "stateMutability": "nonpayable",
      "type": "function"
    },
    {
      "inputs": [
        {
          "internalType": "uint256",
          "name": "_rnd",
          "type": "uint256"
        }
      ],
      "name": "numPeers",
      "outputs": [
        {
          "internalType": "uint256",
          "name": "",
          "type": "uint256"
        }
      ],
      "stateMutability": "view",
      "type": "function"
    },
    {
      "inputs": [
        {
          "internalType": "address",
          "name": "_addr",
          "type": "address"
        },
        {
          "internalType": "uint256",
          "name": "_rnd",
          "type": "uint256"
        }
      ],
      "name": "exists",
      "outputs": [
        {
          "internalType": "bool",
          "name": "",
          "type": "bool"
        }
      ],
      "stateMutability": "view",
      "type": "function"
    },
    {
      "inputs": [],
      "name": "roundCompleted",
      "outputs": [
        {
          "internalType": "uint256",
          "name": "",
          "type": "uint256"
        }
      ],
      "stateMutability": "view",
      "type": "function"
    },
    {
      "inputs": [],
      "name": "currentRound",
      "outputs": [
        {
          "internalType": "uint256",
          "name": "",
          "type": "uint256"
        }
      ],
      "stateMutability": "view",
      "type": "function"
    },
    {
      "inputs": [],
      "name": "getBalance",
      "outputs": [
        {
          "internalType": "uint256",
          "name": "",
          "type": "uint256"
        }
      ],
      "stateMutability": "view",
      "type": "function"
    },
    {
      "inputs": [
        {
          "internalType": "uint256",
          "name": "_rnd",
          "type": "uint256"
        }
      ],
      "name": "getReward",
      "outputs": [
        {
          "internalType": "uint256",
          "name": "",
          "type": "uint256"
        }
      ],
      "stateMutability": "view",
      "type": "function"
    },
    {
      "inputs": [
        {
          "internalType": "address",
          "name": "_addr",
          "type": "address"
        },
        {
          "internalType": "uint256",
          "name": "_rnd",
          "type": "uint256"
        }
      ],
      "name": "redeem",
      "outputs": [],
      "stateMutability": "nonpayable",
      "type": "function"
    },
    {
      "inputs": [
        {
          "internalType": "address",
          "name": "_addr",
          "type": "address"
        },
        {
          "internalType": "uint256",
          "name": "_rnd",
          "type": "uint256"
        }
      ],
      "name": "performDraw",
      "outputs": [],
      "stateMutability": "nonpayable",
      "type": "function"
    },
    {
      "inputs": [
        {
          "internalType": "uint256",
          "name": "_rnd",
          "type": "uint256"
        }
      ],
      "name": "getDrawn",
      "outputs": [
        {
          "internalType": "uint256",
          "name": "",
          "type": "uint256"
        }
      ],
      "stateMutability": "view",
      "type": "function"
    },
    {
      "inputs": [
        {
          "internalType": "uint256",
          "name": "_rnd",
          "type": "uint256"
        }
      ],
      "name": "drawCompleted",
      "outputs": [
        {
          "internalType": "bool",
          "name": "",
          "type": "bool"
        }
      ],
      "stateMutability": "view",
      "type": "function"
    },
    {
      "inputs": [
        {
          "internalType": "uint256",
          "name": "_rnd",
          "type": "uint256"
        }
      ],
      "name": "redeemCompleted",
      "outputs": [
        {
          "internalType": "bool",
          "name": "",
          "type": "bool"
        }
      ],
      "stateMutability": "view",
      "type": "function"
    },
    {
      "inputs": [
        {
          "internalType": "address",
          "name": "_addr",
          "type": "address"
        },
        {
          "internalType": "uint256",
          "name": "_rnd",
          "type": "uint256"
        }
      ],
      "name": "eligibleDraw",
      "outputs": [
        {
          "internalType": "bool",
          "name": "",
          "type": "bool"
        }
      ],
      "stateMutability": "view",
      "type": "function"
    },
    {
      "inputs": [
        {
          "internalType": "address",
          "name": "_addr",
          "type": "address"
        },
        {
          "internalType": "uint256",
          "name": "_rnd",
          "type": "uint256"
        }
      ],
      "name": "eligibleRedeem",
      "outputs": [
        {
          "internalType": "bool",
          "name": "",
          "type": "bool"
        }
      ],
      "stateMutability": "view",
      "type": "function"
    },
    {
      "inputs": [
        {
          "internalType": "uint256",
          "name": "_rnd",
          "type": "uint256"
        }
      ],
      "name": "getWinner",
      "outputs": [
        {
          "internalType": "address",
          "name": "addr",
          "type": "address"
        },
        {
          "internalType": "uint256",
          "name": "amt",
          "type": "uint256"
        }
      ],
      "stateMutability": "view",
      "type": "function"
    }
  ],
  "bytecode": "0x60a0604052736168499c0cffcacd319c818142124b7a15e857ab600160006101000a81548173ffffffffffffffffffffffffffffffffffffffff021916908373ffffffffffffffffffffffffffffffffffffffff1602179055507fd89b2bf150e3b9e13446986e571fb9cab24b13cea0a43ea20a6049a85cc807cc60001b600255620186a0600360006101000a81548163ffffffff021916908363ffffffff16021790555060038060046101000a81548161ffff021916908361ffff1602179055506001600360066101000a81548163ffffffff021916908363ffffffff16021790555060006003600a6101000a81548163ffffffff021916908363ffffffff1602179055506001600660006101000a81548160ff0219169083151502179055503480156200012d57600080fd5b506040516200335b3803806200335b833981810160405281019062000153919062000306565b600160009054906101000a900473ffffffffffffffffffffffffffffffffffffffff168073ffffffffffffffffffffffffffffffffffffffff1660808173ffffffffffffffffffffffffffffffffffffffff16815250505033600460006101000a81548173ffffffffffffffffffffffffffffffffffffffff021916908373ffffffffffffffffffffffffffffffffffffffff160217905550600160009054906101000a900473ffffffffffffffffffffffffffffffffffffffff166000806101000a81548173ffffffffffffffffffffffffffffffffffffffff021916908373ffffffffffffffffffffffffffffffffffffffff16021790555080600060146101000a81548167ffffffffffffffff021916908367ffffffffffffffff16021790555060016005819055506000600d60006005548152602001908152602001600020819055506000600a60006005548152602001908152602001600020819055505062000338565b600080fd5b600067ffffffffffffffff82169050919050565b620002e081620002c1565b8114620002ec57600080fd5b50565b6000815190506200030081620002d5565b92915050565b6000602082840312156200031f576200031e620002bc565b5b60006200032f84828501620002ef565b91505092915050565b6080516130006200035b60003960008181610e4c0152610ea001526130006000f3fe60806040526004361061011f5760003560e01c8063450603e6116100a0578063c62cb49e11610064578063c62cb49e14610401578063d8bae8a21461043e578063db87d7221461047b578063ed2933ed146104a4578063f56491b9146104e15761011f565b8063450603e61461031a57806351cff8d914610357578063893d20e8146103805780638a19c8bc146103ab5780638da5cb5b146103d65761011f565b80631c4b774b116100e75780631c4b774b146102105780631e9a69501461024d5780631fe543e3146102765780634129b2c91461029f57806343a82970146102dd5761011f565b806302c0bd371461012457806312065fe014610161578063146ca5311461018c5780631a5ddf67146101b75780631b760719146101f4575b600080fd5b34801561013057600080fd5b5061014b60048036038101906101469190611c24565b61050c565b6040516101589190611c60565b60405180910390f35b34801561016d57600080fd5b50610176610610565b6040516101839190611c60565b60405180910390f35b34801561019857600080fd5b506101a1610618565b6040516101ae9190611c60565b60405180910390f35b3480156101c357600080fd5b506101de60048036038101906101d99190611c24565b61061e565b6040516101eb9190611c96565b60405180910390f35b61020e60048036038101906102099190611e55565b610648565b005b34801561021c57600080fd5b5061023760048036038101906102329190611c24565b6109d1565b6040516102449190611c60565b60405180910390f35b34801561025957600080fd5b50610274600480360381019061026f9190611ec4565b610a78565b005b34801561028257600080fd5b5061029d60048036038101906102989190611fcc565b610e4a565b005b3480156102ab57600080fd5b506102c660048036038101906102c19190611c24565b610f0a565b6040516102d4929190612037565b60405180910390f35b3480156102e957600080fd5b5061030460048036038101906102ff9190611c24565b611061565b6040516103119190611c96565b60405180910390f35b34801561032657600080fd5b50610341600480360381019061033c9190611ec4565b611090565b60405161034e9190611c96565b60405180910390f35b34801561036357600080fd5b5061037e60048036038101906103799190612060565b611243565b005b34801561038c57600080fd5b5061039561157a565b6040516103a2919061208d565b60405180910390f35b3480156103b757600080fd5b506103c06115a4565b6040516103cd9190611c60565b60405180910390f35b3480156103e257600080fd5b506103eb6115ae565b6040516103f8919061208d565b60405180910390f35b34801561040d57600080fd5b5061042860048036038101906104239190611ec4565b6115d4565b6040516104359190611c96565b60405180910390f35b34801561044a57600080fd5b5061046560048036038101906104609190611c24565b6116eb565b6040516104729190611c60565b60405180910390f35b34801561048757600080fd5b506104a2600480360381019061049d9190611ec4565b611708565b005b3480156104b057600080fd5b506104cb60048036038101906104c69190611ec4565b611ab3565b6040516104d89190611c96565b60405180910390f35b3480156104ed57600080fd5b506104f6611b21565b6040516105039190611c60565b60405180910390f35b6000600460009054906101000a900473ffffffffffffffffffffffffffffffffffffffff1673ffffffffffffffffffffffffffffffffffffffff163373ffffffffffffffffffffffffffffffffffffffff161461059e576040517f08c379a00000000000000000000000000000000000000000000000000000000081526004016105959061212b565b60405180910390fd5b6000600b60008481526020019081526020016000205414156105f5576040517f08c379a00000000000000000000000000000000000000000000000000000000081526004016105ec90612197565b60405180910390fd5b600b6000838152602001908152602001600020549050919050565b600047905090565b60055481565b6000600c600083815260200190815260200160002060009054906101000a900460ff169050919050565b8080341461068b576040517f08c379a000000000000000000000000000000000000000000000000000000000815260040161068290612203565b60405180910390fd5b600a600d6000600554815260200190815260200160002054106106e3576040517f08c379a00000000000000000000000000000000000000000000000000000000081526004016106da90612295565b60405180910390fd5b600060096000600554815260200190815260200160002060008673ffffffffffffffffffffffffffffffffffffffff1673ffffffffffffffffffffffffffffffffffffffff1681526020019081526020016000205414610778576040517f08c379a000000000000000000000000000000000000000000000000000000000815260040161076f90612301565b60405180910390fd5b66038d7ea4c680003410156107c2576040517f08c379a00000000000000000000000000000000000000000000000000000000081526004016107b990612393565b60405180910390fd5b6000600190505b600a811161090f57600860006005548152602001908152602001600020600082815260200190815260200160002060020160009054906101000a900460ff166108fc57600060086000600554815260200190815260200160002060008381526020019081526020016000209050858160000160006101000a81548173ffffffffffffffffffffffffffffffffffffffff021916908373ffffffffffffffffffffffffffffffffffffffff16021790555083816001018190555060018160020160006101000a81548160ff0219169083151502179055508160096000600554815260200190815260200160002060008873ffffffffffffffffffffffffffffffffffffffff1673ffffffffffffffffffffffffffffffffffffffff168152602001908152602001600020819055505061090f565b8080610907906123e2565b9150506107c9565b506001600d600060055481526020019081526020016000206000828254610936919061242b565b9250508190555081600a600060055481526020019081526020016000206000828254610962919061242b565b925050819055507f261db681e83b8817ea2d1ddcea01fdf154909e4c591272ccafd98b9cf9bce4506005548560405161099c929190612481565b60405180910390a1600a600d600060055481526020019081526020016000205414156109cb576109ca611b37565b5b50505050565b600080600a60008481526020019081526020016000205411610a28576040517f08c379a0000000000000000000000000000000000000000000000000000000008152600401610a1f906124f6565b60405180910390fd5b6000600a80600085815260200190815260200160002054610a499190612545565b9050600081600a600086815260200190815260200160002054610a6c9190612576565b90508092505050919050565b8060008111610abc576040517f08c379a0000000000000000000000000000000000000000000000000000000008152600401610ab39061261c565b60405180910390fd5b600554811115610b01576040517f08c379a0000000000000000000000000000000000000000000000000000000008152600401610af8906126ae565b60405180910390fd5b8273ffffffffffffffffffffffffffffffffffffffff163373ffffffffffffffffffffffffffffffffffffffff1614610b6f576040517f08c379a0000000000000000000000000000000000000000000000000000000008152600401610b6690612740565b60405180910390fd5b60001515600c600084815260200190815260200160002060009054906101000a900460ff16151514610bd6576040517f08c379a0000000000000000000000000000000000000000000000000000000008152600401610bcd906127d2565b60405180910390fd5b60006009600084815260200190815260200160002060008573ffffffffffffffffffffffffffffffffffffffff1673ffffffffffffffffffffffffffffffffffffffff168152602001908152602001600020541415610c6a576040517f08c379a0000000000000000000000000000000000000000000000000000000008152600401610c619061283e565b60405180910390fd5b6000600b6000848152602001908152602001600020541415610cc1576040517f08c379a0000000000000000000000000000000000000000000000000000000008152600401610cb8906128aa565b60405180910390fd5b600860008381526020019081526020016000206000600b600085815260200190815260200160002054815260200190815260200160002060000160009054906101000a900473ffffffffffffffffffffffffffffffffffffffff1673ffffffffffffffffffffffffffffffffffffffff168373ffffffffffffffffffffffffffffffffffffffff1614610d89576040517f08c379a0000000000000000000000000000000000000000000000000000000008152600401610d809061293c565b60405180910390fd5b6001600c600084815260200190815260200160002060006101000a81548160ff0219169083151502179055506000610dc0836109d1565b90508373ffffffffffffffffffffffffffffffffffffffff166108fc829081150290604051600060405180830381858888f19350505050158015610e08573d6000803e3d6000fd5b507f6b163a29bfdfa3361bad79cc11a031ca5adc60e4b55506a72f3f36fbbc0e07d0838286604051610e3c9392919061295c565b60405180910390a150505050565b7f000000000000000000000000000000000000000000000000000000000000000073ffffffffffffffffffffffffffffffffffffffff163373ffffffffffffffffffffffffffffffffffffffff1614610efc57337f00000000000000000000000000000000000000000000000000000000000000006040517f1cf993f4000000000000000000000000000000000000000000000000000000008152600401610ef3929190612993565b60405180910390fd5b610f068282611b6e565b5050565b6000808260008111610f51576040517f08c379a0000000000000000000000000000000000000000000000000000000008152600401610f489061261c565b60405180910390fd5b600554811115610f96576040517f08c379a0000000000000000000000000000000000000000000000000000000008152600401610f8d906126ae565b60405180910390fd5b6000600b6000868152602001908152602001600020541415610fed576040517f08c379a0000000000000000000000000000000000000000000000000000000008152600401610fe490612a08565b60405180910390fd5b6000600860008681526020019081526020016000206000600b600088815260200190815260200160002054815260200190815260200160002090508060000160009054906101000a900473ffffffffffffffffffffffffffffffffffffffff169350611058856109d1565b92505050915091565b600080600b60008481526020019081526020016000205414611086576001905061108b565b600090505b919050565b60008273ffffffffffffffffffffffffffffffffffffffff163373ffffffffffffffffffffffffffffffffffffffff1614611100576040517f08c379a00000000000000000000000000000000000000000000000000000000081526004016110f790612740565b60405180910390fd5b6000151561110d83611061565b15151461114f576040517f08c379a000000000000000000000000000000000000000000000000000000000815260040161114690612a74565b60405180910390fd5b600a600d600084815260200190815260200160002054146111a5576040517f08c379a000000000000000000000000000000000000000000000000000000000815260040161119c90612b06565b60405180910390fd5b60006009600084815260200190815260200160002060008573ffffffffffffffffffffffffffffffffffffffff1673ffffffffffffffffffffffffffffffffffffffff168152602001908152602001600020541415611239576040517f08c379a000000000000000000000000000000000000000000000000000000000815260040161123090612b72565b60405180910390fd5b6001905092915050565b8073ffffffffffffffffffffffffffffffffffffffff163373ffffffffffffffffffffffffffffffffffffffff16146112b1576040517f08c379a00000000000000000000000000000000000000000000000000000000081526004016112a890612740565b60405180910390fd5b600060096000600554815260200190815260200160002060008373ffffffffffffffffffffffffffffffffffffffff1673ffffffffffffffffffffffffffffffffffffffff168152602001908152602001600020541415611347576040517f08c379a000000000000000000000000000000000000000000000000000000000815260040161133e90612bde565b60405180910390fd5b600060096000600554815260200190815260200160002060008373ffffffffffffffffffffffffffffffffffffffff1673ffffffffffffffffffffffffffffffffffffffff16815260200190815260200160002054905060006008600060055481526020019081526020016000206000838152602001908152602001600020905060008390508073ffffffffffffffffffffffffffffffffffffffff166108fc83600101549081150290604051600060405180830381858888f19350505050158015611417573d6000803e3d6000fd5b508160010154600a6000600554815260200190815260200160002060008282546114419190612576565b925050819055506001600d60006005548152602001908152602001600020600082825461146e9190612576565b92505081905550600060096000600554815260200190815260200160002060008673ffffffffffffffffffffffffffffffffffffffff1673ffffffffffffffffffffffffffffffffffffffff168152602001908152602001600020819055506008600060055481526020019081526020016000206000848152602001908152602001600020600080820160006101000a81549073ffffffffffffffffffffffffffffffffffffffff021916905560018201600090556002820160006101000a81549060ff021916905550507fa2d79e66b907f13a6b87937e614ae40903d38a133ed87b21df730d343a27eb856005548560405161156c929190612481565b60405180910390a150505050565b6000600460009054906101000a900473ffffffffffffffffffffffffffffffffffffffff16905090565b6000600554905090565b600460009054906101000a900473ffffffffffffffffffffffffffffffffffffffff1681565b60008273ffffffffffffffffffffffffffffffffffffffff163373ffffffffffffffffffffffffffffffffffffffff1614611644576040517f08c379a000000000000000000000000000000000000000000000000000000000815260040161163b90612740565b60405180910390fd5b6001151561165183611061565b151514611693576040517f08c379a000000000000000000000000000000000000000000000000000000000815260040161168a90612c4a565b60405180910390fd5b600061169e83610f0a565b5090508373ffffffffffffffffffffffffffffffffffffffff168173ffffffffffffffffffffffffffffffffffffffff1614156116df5760019150506116e5565b60009150505b92915050565b6000600d6000838152602001908152602001600020549050919050565b8173ffffffffffffffffffffffffffffffffffffffff163373ffffffffffffffffffffffffffffffffffffffff1614611776576040517f08c379a000000000000000000000000000000000000000000000000000000000815260040161176d90612740565b60405180910390fd5b6000600b600083815260200190815260200160002054146117cc576040517f08c379a00000000000000000000000000000000000000000000000000000000081526004016117c390612cdc565b60405180910390fd5b600a600d60008381526020019081526020016000205414611822576040517f08c379a000000000000000000000000000000000000000000000000000000000815260040161181990612d6e565b60405180910390fd5b60006009600083815260200190815260200160002060008473ffffffffffffffffffffffffffffffffffffffff1673ffffffffffffffffffffffffffffffffffffffff1681526020019081526020016000205414156118b6576040517f08c379a00000000000000000000000000000000000000000000000000000000081526004016118ad90612b72565b60405180910390fd5b60011515600660009054906101000a900460ff1615151461190c576040517f08c379a000000000000000000000000000000000000000000000000000000000815260040161190390612dda565b60405180910390fd5b6000600660006101000a81548160ff02191690831515021790555060008060009054906101000a900473ffffffffffffffffffffffffffffffffffffffff1673ffffffffffffffffffffffffffffffffffffffff16635d3b1d30600254600060149054906101000a900467ffffffffffffffff16600360049054906101000a900461ffff16600360009054906101000a900463ffffffff16600360069054906101000a900463ffffffff166040518663ffffffff1660e01b81526004016119d7959493929190612e72565b6020604051808303816000875af11580156119f6573d6000803e3d6000fd5b505050506040513d601f19601f82011682018060405250810190611a1a9190612eda565b90508160078190555060016003600a8282829054906101000a900463ffffffff16611a459190612f07565b92506101000a81548163ffffffff021916908363ffffffff1602179055507fc6e3c0e3c899440a4aaac6e319e700d0c78f4651ab337ddf240d4c5c3c5bb5b7816003600a9054906101000a900463ffffffff16604051611aa6929190612f41565b60405180910390a1505050565b6000806009600084815260200190815260200160002060008573ffffffffffffffffffffffffffffffffffffffff1673ffffffffffffffffffffffffffffffffffffffff168152602001908152602001600020541415611b165760009050611b1b565b600190505b92915050565b60006001600554611b329190612576565b905090565b600160056000828254611b4a919061242b565b925050819055506001600660006101000a81548160ff021916908315150217905550565b6001600a82600081518110611b8657611b85612f6a565b5b6020026020010151611b989190612f99565b611ba2919061242b565b600b60006007548152602001908152602001600020819055506001600660006101000a81548160ff0219169083151502179055505050565b6000604051905090565b600080fd5b600080fd5b6000819050919050565b611c0181611bee565b8114611c0c57600080fd5b50565b600081359050611c1e81611bf8565b92915050565b600060208284031215611c3a57611c39611be4565b5b6000611c4884828501611c0f565b91505092915050565b611c5a81611bee565b82525050565b6000602082019050611c756000830184611c51565b92915050565b60008115159050919050565b611c9081611c7b565b82525050565b6000602082019050611cab6000830184611c87565b92915050565b600073ffffffffffffffffffffffffffffffffffffffff82169050919050565b6000611cdc82611cb1565b9050919050565b611cec81611cd1565b8114611cf757600080fd5b50565b600081359050611d0981611ce3565b92915050565b600080fd5b600080fd5b6000601f19601f8301169050919050565b7f4e487b7100000000000000000000000000000000000000000000000000000000600052604160045260246000fd5b611d6282611d19565b810181811067ffffffffffffffff82111715611d8157611d80611d2a565b5b80604052505050565b6000611d94611bda565b9050611da08282611d59565b919050565b600067ffffffffffffffff821115611dc057611dbf611d2a565b5b611dc982611d19565b9050602081019050919050565b82818337600083830152505050565b6000611df8611df384611da5565b611d8a565b905082815260208101848484011115611e1457611e13611d14565b5b611e1f848285611dd6565b509392505050565b600082601f830112611e3c57611e3b611d0f565b5b8135611e4c848260208601611de5565b91505092915050565b600080600060608486031215611e6e57611e6d611be4565b5b6000611e7c86828701611cfa565b935050602084013567ffffffffffffffff811115611e9d57611e9c611be9565b5b611ea986828701611e27565b9250506040611eba86828701611c0f565b9150509250925092565b60008060408385031215611edb57611eda611be4565b5b6000611ee985828601611cfa565b9250506020611efa85828601611c0f565b9150509250929050565b600067ffffffffffffffff821115611f1f57611f1e611d2a565b5b602082029050602081019050919050565b600080fd5b6000611f48611f4384611f04565b611d8a565b90508083825260208201905060208402830185811115611f6b57611f6a611f30565b5b835b81811015611f945780611f808882611c0f565b845260208401935050602081019050611f6d565b5050509392505050565b600082601f830112611fb357611fb2611d0f565b5b8135611fc3848260208601611f35565b91505092915050565b60008060408385031215611fe357611fe2611be4565b5b6000611ff185828601611c0f565b925050602083013567ffffffffffffffff81111561201257612011611be9565b5b61201e85828601611f9e565b9150509250929050565b61203181611cd1565b82525050565b600060408201905061204c6000830185612028565b6120596020830184611c51565b9392505050565b60006020828403121561207657612075611be4565b5b600061208484828501611cfa565b91505092915050565b60006020820190506120a26000830184612028565b92915050565b600082825260208201905092915050565b7f4f6e6c79206f776e65722063616e2063616c6c20746869732066756e6374696f60008201527f6e00000000000000000000000000000000000000000000000000000000000000602082015250565b60006121156021836120a8565b9150612120826120b9565b604082019050919050565b6000602082019050818103600083015261214481612108565b9050919050565b7f5468652064726177206973206e6f742079657420646563696465640000000000600082015250565b6000612181601b836120a8565b915061218c8261214b565b602082019050919050565b600060208201905081810360008301526121b081612174565b9050919050565b7f416d74206d75737420626520657175616c20746f206d73672076616c75650000600082015250565b60006121ed601e836120a8565b91506121f8826121b7565b602082019050919050565b6000602082019050818103600083015261221c816121e0565b9050919050565b7f54656e206d656d62657273206861766520616c7265616479207265676973746560008201527f7265642100000000000000000000000000000000000000000000000000000000602082015250565b600061227f6024836120a8565b915061228a82612223565b604082019050919050565b600060208201905081810360008301526122ae81612272565b9050919050565b7f4d656d62657220616c7265616479206164646564000000000000000000000000600082015250565b60006122eb6014836120a8565b91506122f6826122b5565b602082019050919050565b6000602082019050818103600083015261231a816122de565b9050919050565b7f596f75206d75737420696e76657374206174206c6561737420302e303031204560008201527f544820746f207061727469636970617465210000000000000000000000000000602082015250565b600061237d6032836120a8565b915061238882612321565b604082019050919050565b600060208201905081810360008301526123ac81612370565b9050919050565b7f4e487b7100000000000000000000000000000000000000000000000000000000600052601160045260246000fd5b60006123ed82611bee565b91507fffffffffffffffffffffffffffffffffffffffffffffffffffffffffffffffff8214156124205761241f6123b3565b5b600182019050919050565b600061243682611bee565b915061244183611bee565b9250827fffffffffffffffffffffffffffffffffffffffffffffffffffffffffffffffff03821115612476576124756123b3565b5b828201905092915050565b60006040820190506124966000830185611c51565b6124a36020830184612028565b9392505050565b7f496e73756666696369656e742066756e64732100000000000000000000000000600082015250565b60006124e06013836120a8565b91506124eb826124aa565b602082019050919050565b6000602082019050818103600083015261250f816124d3565b9050919050565b7f4e487b7100000000000000000000000000000000000000000000000000000000600052601260045260246000fd5b600061255082611bee565b915061255b83611bee565b92508261256b5761256a612516565b5b828204905092915050565b600061258182611bee565b915061258c83611bee565b92508282101561259f5761259e6123b3565b5b828203905092915050565b7f54686520726f756e64206d7573742062652067726561746572207468616e207a60008201527f65726f0000000000000000000000000000000000000000000000000000000000602082015250565b60006126066023836120a8565b9150612611826125aa565b604082019050919050565b60006020820190508181036000830152612635816125f9565b9050919050565b7f54686520726f756e64206d757374206265206c657373207468616e206571756160008201527f6c20746f207468652063757272656e7420726f756e6400000000000000000000602082015250565b60006126986036836120a8565b91506126a38261263c565b604082019050919050565b600060208201905081810360008301526126c78161268b565b9050919050565b7f53656e6465722061646472206e6f742073616d6520617320706172616d65746560008201527f7220706173736564210000000000000000000000000000000000000000000000602082015250565b600061272a6029836120a8565b9150612735826126ce565b604082019050919050565b600060208201905081810360008301526127598161271d565b9050919050565b7f54686520616d7420666f72207468697320726f756e6420697320616c7265616460008201527f792072656465656d656400000000000000000000000000000000000000000000602082015250565b60006127bc602a836120a8565b91506127c782612760565b604082019050919050565b600060208201905081810360008301526127eb816127af565b9050919050565b7f4d656d62657220646964206e6f74207061727469636970617465000000000000600082015250565b6000612828601a836120a8565b9150612833826127f2565b602082019050919050565b600060208201905081810360008301526128578161281b565b9050919050565b7f57696e6e6572206e6f7420646563696465642079657400000000000000000000600082015250565b60006128946016836120a8565b915061289f8261285e565b602082019050919050565b600060208201905081810360008301526128c381612887565b9050919050565b7f4f6e6c792057696e6e6572206f66207468697320726f756e642063616e20726560008201527f6465656d2074686520616d6f756e740000000000000000000000000000000000602082015250565b6000612926602f836120a8565b9150612931826128ca565b604082019050919050565b6000602082019050818103600083015261295581612919565b9050919050565b60006060820190506129716000830186611c51565b61297e6020830185611c51565b61298b6040830184612028565b949350505050565b60006040820190506129a86000830185612028565b6129b56020830184612028565b9392505050565b7f57696e6e6572206973206e6f7420796574206465636964656421000000000000600082015250565b60006129f2601a836120a8565b91506129fd826129bc565b602082019050919050565b60006020820190508181036000830152612a21816129e5565b9050919050565b7f4472617720616c726561647920636f6d706c6574656421000000000000000000600082015250565b6000612a5e6017836120a8565b9150612a6982612a28565b602082019050919050565b60006020820190508181036000830152612a8d81612a51565b9050919050565b7f4e756d626572206f662070656572732072656769737465726564206d7573742060008201527f6265203130000000000000000000000000000000000000000000000000000000602082015250565b6000612af06025836120a8565b9150612afb82612a94565b604082019050919050565b60006020820190508181036000830152612b1f81612ae3565b9050919050565b7f596f7520646964206e6f74207061727469636970617465210000000000000000600082015250565b6000612b5c6018836120a8565b9150612b6782612b26565b602082019050919050565b60006020820190508181036000830152612b8b81612b4f565b9050919050565b7f4d656d626572206e6f7420616464656400000000000000000000000000000000600082015250565b6000612bc86010836120a8565b9150612bd382612b92565b602082019050919050565b60006020820190508181036000830152612bf781612bbb565b9050919050565b7f4472617720686173206e6f74207965742074616b656e20706c61636521000000600082015250565b6000612c34601d836120a8565b9150612c3f82612bfe565b602082019050919050565b60006020820190508181036000830152612c6381612c27565b9050919050565b7f4472617720666f72207468697320726f756e6420686173206265656e20636f6d60008201527f706c657465642100000000000000000000000000000000000000000000000000602082015250565b6000612cc66027836120a8565b9150612cd182612c6a565b604082019050919050565b60006020820190508181036000830152612cf581612cb9565b9050919050565b7f546f74616c206e756d206f66207065657273207265676973746572656420666f60008201527f72207468697320726f756e64206d757374206265203130000000000000000000602082015250565b6000612d586037836120a8565b9150612d6382612cfc565b604082019050919050565b60006020820190508181036000830152612d8781612d4b565b9050919050565b7f447261772069732074616b696e6720706c6163652e20506c7320776169742021600082015250565b6000612dc46020836120a8565b9150612dcf82612d8e565b602082019050919050565b60006020820190508181036000830152612df381612db7565b9050919050565b6000819050919050565b612e0d81612dfa565b82525050565b600067ffffffffffffffff82169050919050565b612e3081612e13565b82525050565b600061ffff82169050919050565b612e4d81612e36565b82525050565b600063ffffffff82169050919050565b612e6c81612e53565b82525050565b600060a082019050612e876000830188612e04565b612e946020830187612e27565b612ea16040830186612e44565b612eae6060830185612e63565b612ebb6080830184612e63565b9695505050505050565b600081519050612ed481611bf8565b92915050565b600060208284031215612ef057612eef611be4565b5b6000612efe84828501612ec5565b91505092915050565b6000612f1282612e53565b9150612f1d83612e53565b92508263ffffffff03821115612f3657612f356123b3565b5b828201905092915050565b6000604082019050612f566000830185611c51565b612f636020830184612e63565b9392505050565b7f4e487b7100000000000000000000000000000000000000000000000000000000600052603260045260246000fd5b6000612fa482611bee565b9150612faf83611bee565b925082612fbf57612fbe612516565b5b82820690509291505056fea26469706673582212208cfa211cceb40a9ce51a3a8250785730dfb4d7cb893e02ec673bd7d4c0a00cae64736f6c634300080c0033",
  "immutableReferences": {
    "10": [
      {
        "length": 32,
        "start": 3660
      },
      {
        "length": 32,
        "start": 3744
      }
    ]
  },
  "source": "// SPDX-License-Identifier: MIT\npragma solidity >=0.4.22 <0.9.0;\n\nimport \"@chainlink/contracts/src/v0.8/interfaces/LinkTokenInterface.sol\";\nimport \"@chainlink/contracts/src/v0.8/interfaces/VRFCoordinatorV2Interface.sol\";\nimport \"@chainlink/contracts/src/v0.8/VRFConsumerBaseV2.sol\";\n\n\ncontract Lottery is VRFConsumerBaseV2 {\n    struct Member {\n        address addr;\n        uint amt;\n        bool added;\n    }\n\n    VRFCoordinatorV2Interface COORDINATOR;\n    uint64 s_subscriptionId;\n    address vrfCoordinator = 0x6168499c0cFfCaCD319c818142124B7A15E857ab;\n    bytes32 s_keyHash = 0xd89b2bf150e3b9e13446986e571fb9cab24b13cea0a43ea20a6049a85cc807cc;\n    uint32 callbackGasLimit = 100000;\n    uint16 requestConfirmations = 3;\n    uint32 internal numWords = 1;\n    uint32 internal draw = 0;\n    address public owner;\n    uint public round;\n    bool private ROUND_PROGRESS = true;\n    uint private constant MIN_AMT = 1000000000000000;\n    uint private draw_rnd;\n\n    mapping(uint => mapping(uint => Member)) members;\n    mapping(uint => mapping(address => uint)) added;\n    mapping(uint => uint) funds;\n    mapping (uint => uint256) draws;\n    mapping(uint => bool) redeems;\n    mapping(uint => uint) peers;\n\n    event initRandomSetup(uint256 requestId, uint32 draw);\n    event MemberJoin(uint round, address member);\n    event MemberWithdraw(uint round, address member);\n    event WinnerRedeem(uint round, uint amt, address addr);\n\n    constructor(uint64 subscriptionId) VRFConsumerBaseV2(vrfCoordinator) {\n        owner = msg.sender;\n        COORDINATOR = VRFCoordinatorV2Interface(vrfCoordinator);\n        s_subscriptionId = subscriptionId;\n        round = 1; // init current round\n        peers[round] = 0;\n        funds[round] = 0;\n    }\n\n    modifier onlyOwner() {\n        require(msg.sender == owner, 'Only owner can call this function');\n        _;\n    }\n\n    modifier checkAmt(uint amt) {\n        require (msg.value == amt, 'Amt must be equal to msg value');\n        _;\n    }\n\n    modifier checkRnd(uint rnd) {\n        require(rnd > 0, 'The round must be greater than zero');\n        require(rnd <= round, 'The round must be less than equal to the current round');\n        _;\n    }\n\n    function getOwner() public view returns (address) {\n        return owner;\n    }\n\n    function addMember(address _addr, string memory, uint _amt)\n        external checkAmt(_amt) payable {\n            require(peers[round] < 10, 'Ten members have already registered!');\n            require(added[round][_addr] == 0, 'Member already added');\n            require(msg.value >= MIN_AMT, 'You must invest at least 0.001 ETH to participate!');\n            for (uint i = 1; i <= 10; i++) {\n                if (!members[round][i].added) {\n                    Member storage member = members[round][i];\n                    member.addr = _addr;\n                    member.amt = _amt;\n                    member.added = true;\n                    added[round][_addr] = i;\n                    break;\n                }\n            }\n            peers[round] += 1;\n            funds[round] += _amt;\n            emit MemberJoin(round, _addr);\n            // stop members withdrawal after 10 members registered for that round\n            // increment round so others can still register for next round\n            if (peers[round] == 10) {\n                nextRound();\n            }\n    }\n\n    function withdraw(address _addr) external {\n        require(msg.sender == _addr, 'Sender addr not same as parameter passed!');\n        require(added[round][_addr] != 0, 'Member not added');\n        uint id = added[round][_addr];\n        Member storage member = members[round][id];\n        address payable to = payable(_addr);\n        to.transfer(member.amt);\n        funds[round] -= member.amt;\n        peers[round] -= 1;\n        added[round][_addr] = 0;\n        delete members[round][id];\n        emit MemberWithdraw(round, _addr);\n    }\n\n    function numPeers(uint _rnd) public view returns (uint) {\n        return peers[_rnd];\n    }\n\n    function exists(address _addr, uint _rnd) public view returns (bool) {\n        if(added[_rnd][_addr] == 0) {\n            return false;\n        }\n        return true;\n    }\n\n    function roundCompleted() public view returns (uint) {\n        return (round - 1);\n    }\n\n    function currentRound() public view returns (uint) {\n        return round;\n    }\n\n    function getBalance() public view returns (uint) {\n        return address(this).balance;\n    }\n\n    function getReward(uint _rnd) public view returns (uint) {\n        require(funds[_rnd] > 0, 'Insufficient funds!');\n        uint fee = funds[_rnd] / 10; // 10% commission for the contract\n        uint reward = funds[_rnd] - fee; // reward to the winner\n        return reward;\n    }\n\n    function redeem(address _addr, uint _rnd) checkRnd(_rnd) external {\n        require(msg.sender == _addr, 'Sender addr not same as parameter passed!');\n        require(redeems[_rnd] == false, 'The amt for this round is already redeemed');\n        require(added[_rnd][_addr] != 0, 'Member did not participate');\n        require(draws[_rnd] != 0, 'Winner not decided yet');\n        require(_addr == members[_rnd][draws[_rnd]].addr, 'Only Winner of this round can redeem the amount');\n        redeems[_rnd] = true;\n        uint reward = getReward(_rnd);\n        payable(_addr).transfer(reward);\n        emit WinnerRedeem(_rnd, reward, _addr);\n    }\n\n    function nextRound() internal {\n        round += 1;\n        ROUND_PROGRESS = true;\n    }\n\n    function performDraw(address _addr, uint _rnd) external {\n        require(msg.sender == _addr, 'Sender addr not same as parameter passed!');\n        require(draws[_rnd] == 0, 'Draw for this round has been completed!');\n        require(peers[_rnd] == 10, 'Total num of peers registered for this round must be 10');\n        require(added[_rnd][_addr] != 0, 'You did not participate!');\n        require(ROUND_PROGRESS == true, 'Draw is taking place. Pls wait !');\n        ROUND_PROGRESS = false;\n        uint256 requestId = COORDINATOR.requestRandomWords(\n            s_keyHash,\n            s_subscriptionId,\n            requestConfirmations,\n            callbackGasLimit,\n            numWords\n        );\n        draw_rnd = _rnd;\n        draw += 1;\n        emit initRandomSetup(requestId, draw);\n    }\n\n    function getDrawn(uint _rnd) public onlyOwner view returns (uint) {\n        require(draws[_rnd] != 0, 'The draw is not yet decided');\n        return draws[_rnd];\n    }\n\n    function drawCompleted(uint _rnd) public view returns (bool) {\n        if (draws[_rnd] != 0) {\n            return true;\n        }\n        return false;\n    }\n\n    function redeemCompleted(uint _rnd) public view returns (bool) {\n        return redeems[_rnd];\n    }\n\n    function eligibleDraw(address _addr, uint _rnd) public view returns (bool) {\n        require(msg.sender == _addr, 'Sender addr not same as parameter passed!');\n        require(drawCompleted(_rnd) == false, 'Draw already completed!');\n        require(peers[_rnd] == 10, 'Number of peers registered must be 10');\n        require(added[_rnd][_addr] != 0, 'You did not participate!');\n        return true;\n    }\n\n    function eligibleRedeem(address _addr, uint _rnd) public view returns (bool) {\n        require(msg.sender == _addr, 'Sender addr not same as parameter passed!');\n        require(drawCompleted(_rnd) == true, 'Draw has not yet taken place!');\n        (address addr, ) = getWinner(_rnd);\n        if (addr == _addr) {\n            return true;\n        }\n        return false;\n    }\n\n    function fulfillRandomWords(uint256, uint256[] memory randomWords) internal override {\n        draws[draw_rnd] = (randomWords[0] % 10) + 1;\n        ROUND_PROGRESS = true; // allow another draw\n    }\n\n    function getWinner(uint _rnd) public checkRnd(_rnd) view returns (address addr, uint amt) {\n        require(draws[_rnd] != 0, 'Winner is not yet decided!');\n        Member storage member = members[_rnd][draws[_rnd]];\n        addr = member.addr;\n        amt = getReward(_rnd);\n    }\n}",
  "sourcePath": "/root/react/lottery10/contracts/Lottery.sol",
  "compiler": {
    "name": "solc",
    "version": "0.8.12+commit.f00d7308.Emscripten.clang"
  },
  "schemaVersion": "3.4.6",
  "updatedAt": "2022-06-30T17:03:14.269Z",
  "devdoc": {
    "kind": "dev",
    "methods": {},
    "version": 1
  },
  "userdoc": {
    "kind": "user",
    "methods": {},
    "version": 1
  }
}