{
  "contractName": "Random",
  "abi": [
    {
      "inputs": [
        {
          "internalType": "uint64",
          "name": "subscriptionId",
          "type": "uint64"
        }
      ],
      "stateMutability": "nonpayable",
      "type": "constructor"
    },
    {
      "inputs": [
        {
          "internalType": "address",
          "name": "have",
          "type": "address"
        },
        {
          "internalType": "address",
          "name": "want",
          "type": "address"
        }
      ],
      "name": "OnlyCoordinatorCanFulfill",
      "type": "error"
    },
    {
      "anonymous": false,
      "inputs": [
        {
          "indexed": false,
          "internalType": "uint256",
          "name": "requestId",
          "type": "uint256"
        },
        {
          "indexed": false,
          "internalType": "uint8",
          "name": "value",
          "type": "uint8"
        }
      ],
      "name": "RandomValueFilled",
      "type": "event"
    },
    {
      "anonymous": false,
      "inputs": [
        {
          "indexed": false,
          "internalType": "uint256",
          "name": "requestId",
          "type": "uint256"
        },
        {
          "indexed": false,
          "internalType": "uint32",
          "name": "draw",
          "type": "uint32"
        }
      ],
      "name": "initRandomSetup",
      "type": "event"
    },
    {
      "inputs": [
        {
          "internalType": "uint256",
          "name": "requestId",
          "type": "uint256"
        },
        {
          "internalType": "uint256[]",
          "name": "randomWords",
          "type": "uint256[]"
        }
      ],
      "name": "rawFulfillRandomWords",
      "outputs": [],
      "stateMutability": "nonpayable",
      "type": "function"
    },
    {
      "inputs": [],
      "name": "initRandom",
      "outputs": [
        {
          "internalType": "uint256",
          "name": "",
          "type": "uint256"
        }
      ],
      "stateMutability": "nonpayable",
      "type": "function"
    },
    {
      "inputs": [],
      "name": "getRandom",
      "outputs": [
        {
          "internalType": "uint8",
          "name": "",
          "type": "uint8"
        }
      ],
      "stateMutability": "view",
      "type": "function"
    }
  ],
  "bytecode": "0x60a0604052736168499c0cffcacd319c818142124b7a15e857ab600160006101000a81548173ffffffffffffffffffffffffffffffffffffffff021916908373ffffffffffffffffffffffffffffffffffffffff1602179055507fd89b2bf150e3b9e13446986e571fb9cab24b13cea0a43ea20a6049a85cc807cc60001b600255620186a0600360006101000a81548163ffffffff021916908363ffffffff16021790555060038060046101000a81548161ffff021916908361ffff1602179055506001600360066101000a81548163ffffffff021916908363ffffffff16021790555060006003600a6101000a81548163ffffffff021916908363ffffffff1602179055506001600860006101000a81548160ff02191690831515021790555034801561012c57600080fd5b50604051610e27380380610e27833981810160405281019061014e91906102d5565b600160009054906101000a900473ffffffffffffffffffffffffffffffffffffffff168073ffffffffffffffffffffffffffffffffffffffff1660808173ffffffffffffffffffffffffffffffffffffffff16815250505033600460006101000a81548173ffffffffffffffffffffffffffffffffffffffff021916908373ffffffffffffffffffffffffffffffffffffffff160217905550600160009054906101000a900473ffffffffffffffffffffffffffffffffffffffff166000806101000a81548173ffffffffffffffffffffffffffffffffffffffff021916908373ffffffffffffffffffffffffffffffffffffffff16021790555080600060146101000a81548167ffffffffffffffff021916908367ffffffffffffffff16021790555060016005819055506000600681905550600060078190555050610302565b600080fd5b600067ffffffffffffffff82169050919050565b6102b281610295565b81146102bd57600080fd5b50565b6000815190506102cf816102a9565b92915050565b6000602082840312156102eb576102ea610290565b5b60006102f9848285016102c0565b91505092915050565b608051610b056103226000396000818160a0015260f40152610b056000f3fe608060405234801561001057600080fd5b50600436106100415760003560e01c80631fe543e314610046578063a032c69214610062578063aacc5a1714610080575b600080fd5b610060600480360381019061005b9190610677565b61009e565b005b61006a61015e565b60405161007791906106e2565b60405180910390f35b610088610393565b6040516100959190610719565b60405180910390f35b7f000000000000000000000000000000000000000000000000000000000000000073ffffffffffffffffffffffffffffffffffffffff163373ffffffffffffffffffffffffffffffffffffffff161461015057337f00000000000000000000000000000000000000000000000000000000000000006040517f1cf993f4000000000000000000000000000000000000000000000000000000008152600401610147929190610775565b60405180910390fd5b61015a828261043a565b5050565b6000600460009054906101000a900473ffffffffffffffffffffffffffffffffffffffff1673ffffffffffffffffffffffffffffffffffffffff163373ffffffffffffffffffffffffffffffffffffffff16146101f0576040517f08c379a00000000000000000000000000000000000000000000000000000000081526004016101e790610821565b60405180910390fd5b60008060009054906101000a900473ffffffffffffffffffffffffffffffffffffffff1673ffffffffffffffffffffffffffffffffffffffff16635d3b1d30600254600060149054906101000a900467ffffffffffffffff16600360049054906101000a900461ffff16600360009054906101000a900463ffffffff16600360069054906101000a900463ffffffff166040518663ffffffff1660e01b81526004016102a09594939291906108b9565b6020604051808303816000875af11580156102bf573d6000803e3d6000fd5b505050506040513d601f19601f820116820180604052508101906102e39190610921565b905060016003600a8282829054906101000a900463ffffffff16610307919061097d565b92506101000a81548163ffffffff021916908363ffffffff16021790555060646003600e6101000a81548160ff021916908360ff1602179055507fc6e3c0e3c899440a4aaac6e319e700d0c78f4651ab337ddf240d4c5c3c5bb5b7816003600a9054906101000a900463ffffffff166040516103849291906109b7565b60405180910390a18091505090565b6000600460009054906101000a900473ffffffffffffffffffffffffffffffffffffffff1673ffffffffffffffffffffffffffffffffffffffff163373ffffffffffffffffffffffffffffffffffffffff1614610425576040517f08c379a000000000000000000000000000000000000000000000000000000000815260040161041c90610821565b60405180910390fd5b6003600e9054906101000a900460ff16905090565b6001600a82600081518110610452576104516109e0565b5b60200260200101516104649190610a3e565b61046e9190610a6f565b6003600e6101000a81548160ff021916908360ff1602179055507feb0d8db7ce3437ce9ed5197b8673a81103514ec70b867be0db38194f009edbf0826003600e9054906101000a900460ff166040516104c8929190610aa6565b60405180910390a15050565b6000604051905090565b600080fd5b600080fd5b6000819050919050565b6104fb816104e8565b811461050657600080fd5b50565b600081359050610518816104f2565b92915050565b600080fd5b6000601f19601f8301169050919050565b7f4e487b7100000000000000000000000000000000000000000000000000000000600052604160045260246000fd5b61056c82610523565b810181811067ffffffffffffffff8211171561058b5761058a610534565b5b80604052505050565b600061059e6104d4565b90506105aa8282610563565b919050565b600067ffffffffffffffff8211156105ca576105c9610534565b5b602082029050602081019050919050565b600080fd5b60006105f36105ee846105af565b610594565b90508083825260208201905060208402830185811115610616576106156105db565b5b835b8181101561063f578061062b8882610509565b845260208401935050602081019050610618565b5050509392505050565b600082601f83011261065e5761065d61051e565b5b813561066e8482602086016105e0565b91505092915050565b6000806040838503121561068e5761068d6104de565b5b600061069c85828601610509565b925050602083013567ffffffffffffffff8111156106bd576106bc6104e3565b5b6106c985828601610649565b9150509250929050565b6106dc816104e8565b82525050565b60006020820190506106f760008301846106d3565b92915050565b600060ff82169050919050565b610713816106fd565b82525050565b600060208201905061072e600083018461070a565b92915050565b600073ffffffffffffffffffffffffffffffffffffffff82169050919050565b600061075f82610734565b9050919050565b61076f81610754565b82525050565b600060408201905061078a6000830185610766565b6107976020830184610766565b9392505050565b600082825260208201905092915050565b7f4f6e6c79206f776e65722063616e2063616c6c20746869732066756e6374696f60008201527f6e00000000000000000000000000000000000000000000000000000000000000602082015250565b600061080b60218361079e565b9150610816826107af565b604082019050919050565b6000602082019050818103600083015261083a816107fe565b9050919050565b6000819050919050565b61085481610841565b82525050565b600067ffffffffffffffff82169050919050565b6108778161085a565b82525050565b600061ffff82169050919050565b6108948161087d565b82525050565b600063ffffffff82169050919050565b6108b38161089a565b82525050565b600060a0820190506108ce600083018861084b565b6108db602083018761086e565b6108e8604083018661088b565b6108f560608301856108aa565b61090260808301846108aa565b9695505050505050565b60008151905061091b816104f2565b92915050565b600060208284031215610937576109366104de565b5b60006109458482850161090c565b91505092915050565b7f4e487b7100000000000000000000000000000000000000000000000000000000600052601160045260246000fd5b60006109888261089a565b91506109938361089a565b92508263ffffffff038211156109ac576109ab61094e565b5b828201905092915050565b60006040820190506109cc60008301856106d3565b6109d960208301846108aa565b9392505050565b7f4e487b7100000000000000000000000000000000000000000000000000000000600052603260045260246000fd5b7f4e487b7100000000000000000000000000000000000000000000000000000000600052601260045260246000fd5b6000610a49826104e8565b9150610a54836104e8565b925082610a6457610a63610a0f565b5b828206905092915050565b6000610a7a826106fd565b9150610a85836106fd565b92508260ff03821115610a9b57610a9a61094e565b5b828201905092915050565b6000604082019050610abb60008301856106d3565b610ac8602083018461070a565b939250505056fea26469706673582212204796ae15c7862828f97865b1a23068e9c215d6213af385039e78e1e3328be95264736f6c634300080c0033",
  "immutableReferences": {
    "10": [
      {
        "length": 32,
        "start": 160
      },
      {
        "length": 32,
        "start": 244
      }
    ]
  },
  "source": "// SPDX-License-Identifier: MIT\npragma solidity >=0.4.22 <0.9.0;\n\nimport \"@chainlink/contracts/src/v0.8/interfaces/LinkTokenInterface.sol\";\nimport \"@chainlink/contracts/src/v0.8/interfaces/VRFCoordinatorV2Interface.sol\";\nimport \"@chainlink/contracts/src/v0.8/VRFConsumerBaseV2.sol\";\n\ncontract Random is VRFConsumerBaseV2 {\n    VRFCoordinatorV2Interface COORDINATOR;\n    uint64 s_subscriptionId;\n    address vrfCoordinator = 0x6168499c0cFfCaCD319c818142124B7A15E857ab;\n    bytes32 s_keyHash = 0xd89b2bf150e3b9e13446986e571fb9cab24b13cea0a43ea20a6049a85cc807cc;\n    uint32 callbackGasLimit = 100000;\n    uint16 requestConfirmations = 3;\n    uint32 internal numWords = 1;\n    uint32 internal draw = 0;\n    uint8 internal randomValue;\n    uint8 internal constant IN_PROGRESS = 100;\n    address internal owner;\n    uint internal round;\n    uint internal num;\n    uint internal total;\n    bool internal ROUND_PROGRESS = true;\n\n    event initRandomSetup(uint256 requestId, uint32 draw);\n    event RandomValueFilled(uint256 requestId, uint8 value);\n\n    constructor(uint64 subscriptionId) VRFConsumerBaseV2(vrfCoordinator) {\n        owner = msg.sender;\n        COORDINATOR = VRFCoordinatorV2Interface(vrfCoordinator);\n        s_subscriptionId = subscriptionId;\n        round = 1; // init current round\n        num = 0; // init total num of peers registered\n        total = 0; // init total amt;\n    }\n\n    function initRandom() public onlyOwner returns (uint256) {\n        uint256 requestId = COORDINATOR.requestRandomWords(\n            s_keyHash,\n            s_subscriptionId,\n            requestConfirmations,\n            callbackGasLimit,\n            numWords\n        );\n        draw += 1;\n        randomValue = IN_PROGRESS;\n        emit initRandomSetup(requestId, draw);\n        return requestId;\n    }\n\n\n    function fulfillRandomWords(uint256 requestId, uint256[] memory randomWords) internal override {\n        randomValue = (uint8)(randomWords[0] % 10) + 1;\n        emit RandomValueFilled(requestId, randomValue);\n    }\n\n    function getRandom() public view onlyOwner returns (uint8) {\n        return randomValue;\n    }\n\n    modifier onlyOwner() {\n        require(msg.sender == owner, 'Only owner can call this function');\n        _;\n    }\n\n    modifier checkRange(uint index) {\n        require(index >= 0, 'index must be greater than equal to zero');\n        require(index <= 9, 'index must be less than equal to nine');\n        _;\n    }\n}\n\ncontract Lottery is Random(6346) {\n    struct Member {\n        string name;\n        uint amt;\n        bool added;\n    }\n    struct Winner {\n        address addr;\n        uint round;\n        uint amt;\n        bool decided;\n    }\n    mapping(uint => mapping(address => Member)) members;\n    mapping(uint => Winner) public winners;\n    mapping (uint => address) Ids;\n\n    event MemberJoin(uint round, address member);\n    event MemberWithdraw(uint round, address member);\n    event WinnerDecided(uint rount, uint amt, address winner);\n\n    function getOwner() public view returns (address) {\n        return owner;\n    }\n\n    function addMember(address _addr, string memory _name, uint _amt)\n        public checkAmt(_amt) checkRange(num) payable {\n            require(ROUND_PROGRESS == true, 'The drawing of last round has not finished yet');\n            require(members[round][_addr].added == false, 'Member already added');\n            Member storage member = members[round][_addr];\n            member.name = _name;\n            member.amt = _amt;\n            member.added = true;\n\n            total += _amt;\n            num += 1;\n            Ids[num] = _addr;\n            emit MemberJoin(round, _addr);\n    }\n\n    modifier checkAmt(uint amt) {\n        require (msg.value == amt, 'Amt must be equal to msg value');\n        _;\n    }\n\n    modifier checkMember(address addr) {\n        require(members[round][addr].added == true, 'Member not added');\n        _;\n    }\n\n    function withdraw(address _addr) public checkMember(_addr) {\n        Member storage member = members[round][_addr];\n        address payable to = payable(_addr);\n        to.transfer(member.amt);\n        total -= member.amt;\n        num -= 1;\n        delete members[round][_addr];\n        emit MemberWithdraw(round, _addr);\n    }\n\n    function totalFunds() public view returns (uint) {\n        return total;\n    }\n\n    function numPeers() public view returns (uint) {\n        return num;\n    }\n\n    function exists(address _addr) public view returns (bool) {\n        return members[round][_addr].added;\n    }\n\n    function roundCompleted() public view returns (uint) {\n        return (round - 1);\n    }\n\n    function currentRound() public view returns (uint) {\n        return round;\n    }\n\n    function getBalance() public view returns (uint) {\n        return address(this).balance;\n    }\n\n    function transfer(address _addr, uint _amt) public onlyOwner {\n        address payable to = payable(_addr);\n        to.transfer(_amt);\n    }\n\n    function nextRound() public onlyOwner {\n        round += 1;\n        total = 0;\n        num = 0;\n        ROUND_PROGRESS = true;\n    }\n\n    function performDraw() public onlyOwner {\n        require(num == 10, 'Total num of peers registered must be 10');\n        require(winners[round].decided == false, 'The winner for this round has already been decided');\n        ROUND_PROGRESS = false;\n        uint8 seed = getRandom();\n        Winner storage winner = winners[round];\n        winner.addr = Ids[seed];\n        winner.round = round;\n        winner.amt = total;\n        winner.decided = true;\n        emit WinnerDecided(round, total, winner.addr);\n    }\n\n    modifier checkRnd(uint rnd) {\n        require(rnd > 0, 'The round must be greater than zero');\n        require(rnd <= round, 'The round must be less than equal to the current round');\n        _;\n    }\n\n    function getWinner(uint _rnd) \n        public checkRnd(_rnd) view returns (address addr, uint rnd, uint amt) {\n            Winner storage winner = winners[_rnd];\n            return (winner.addr, winner.round, winner.amt);\n        }\n}",
  "sourcePath": "/root/react/practice/contracts/Lottery.sol",
  "compiler": {
    "name": "solc",
    "version": "0.8.12+commit.f00d7308.Emscripten.clang"
  },
  "schemaVersion": "3.4.6",
  "updatedAt": "2022-06-18T11:48:51.789Z",
  "devdoc": {
    "kind": "dev",
    "methods": {},
    "version": 1
  },
  "userdoc": {
    "kind": "user",
    "methods": {},
    "version": 1
  }
}